:020000040800F2
:1000000000100020A51100080111000803110008CC
:1000100000000000000000000000000000000000E0
:1000200000000000000000000000000005110008B2
:10003000000000000000000007110008091100087E
:10004000F511000800000000F5110008F511000886
:10005000F5110008F5110008F5110008F511000868
:1000600000000000F5110008F5110008F511000866
:10007000F5110008F5110008F51100080000000056
:10008000F51100080000000000000000F511000854
:1000900000000000F5110008F5110008F511000836
:1000A00000000000F511000800000000F511000834
:1000B0000000000000000000000000000000000040
:1000C00010B5064C2378002B07D1054B002B02D02E
:1000D000044800E000BF0123237010BD6800002029
:1000E000000000006C1A0008044B10B5002B03D070
:1000F0000349044800E000BF10BDC04600000000F6
:100100006C0000206C1A0008002243088B4274D354
:1001100003098B425FD3030A8B4244D3030B8B4208
:1001200028D3030C8B420DD3FF22090212BA030C11
:100130008B4202D31212090265D0030B8B4219D3F2
:1001400000E0090AC30B8B4201D3CB03C01A524112
:10015000830B8B4201D38B03C01A5241430B8B425A
:1001600001D34B03C01A5241030B8B4201D30B0343
:10017000C01A5241C30A8B4201D3CB02C01A52416A
:10018000830A8B4201D38B02C01A5241430A8B422D
:1001900001D34B02C01A5241030A8B4201D30B0216
:1001A000C01A5241CDD2C3098B4201D3CB01C01A30
:1001B000524183098B4201D38B01C01A524143093A
:1001C0008B4201D34B01C01A524103098B4201D328
:1001D0000B01C01A5241C3088B4201D3CB00C01A95
:1001E000524183088B4201D38B00C01A524143080D
:1001F0008B4201D34B00C01A5241411A00D2014632
:10020000524110467047FFE701B5002000F006F8A4
:1002100002BDC0460029F7D076E770477047C04658
:1002200010B5040000F0E8FBFA218900FFF76CFF2D
:1002300000F060F8012000222100404200F030F878
:10024000002010BD1023064A10B5116800200B4392
:100250001360FFF7E5FF00F03BFF002010BDC04634
:1002600000200240024A1368013313607047C04601
:100270001C020020014B18687047C0461C02002079
:1002800037B50190FFF7F6FF019C0500631C5A1E6D
:100290009341E418FFF7EEFF401BA042FAD337BDAD
:1002A00030B5FF2503242A00C3B21C40E400A2405D
:1002B00089012940D243A14000280BDA0F200340D6
:1002C000083B0A489B089B001B18D8690240114351
:1002D000D96130BD064B80088000C018C0239B0048
:1002E000C45822401143C150F3E7C04600ED00E07E
:1002F00000E100E0094A431E012093420DD8C021CD
:10030000074A08485360036A09061B021B0A0B438D
:10031000036200200723906013607047FFFFFF0017
:1003200010E000E000ED00E0F0B50B6887B003934B
:1003300000230191039ADA4001D107B0F0BD0122F8
:100340009A4002920299039A0A40009200D18CE0EE
:10035000019A1021526816008E43022E0ED10725F5
:100360001D40AD000139A940DC08A4000419276A2A
:100370008F4301990969A9400F43276203245F0055
:10038000BC40E4430568013E2540AC4603251540CA
:10039000BD4061460D430560012E0FD80199866866
:1003A000CD682640BD4035438560466802991509F1
:1003B0008E4301210D409D4035434560C56801993C
:1003C0002C408D688021BD4049052C43C4600A4201
:1003D0004BD00121264C0326A5691E400D43A56183
:1003E000A4699D080C400594059C0F242149AD008B
:1003F000B6006D18B4409021AF68C905A74300242A
:1004000088420CD01C490134884208D01B49013471
:10041000884204D01A490334884200D1023CB440D7
:1004200000993C430E00AC60164CCD4327683E4318
:10043000D10301D43E002E4026606768009E3E43F3
:10044000910301D43E002E406660A768009E3E43A3
:10045000D10201D43E002E40A660E668009F3743DB
:10046000920201D42E403700E760013362E7C046B4
:10047000001002400000014000040048000800484D
:10048000000C00480004014000690840411E8841FA
:10049000C0B27047002A01D0816170478162FCE7D9
:1004A000F0B5036885B00500DB072FD42B689B07E8
:1004B00000D581E02B681B0700D5BCE02B685B07EB
:1004C00000D5DFE02B68DB061AD56A69B54C04233A
:1004D000012A00D04BE1616B02260B436363636B1F
:1004E0001A436263FFF7C6FE0700636B334200D115
:1004F00036E1F821626BAB698A43DB001343636327
:10050000296A002900D059E1002013E00C21A54CF4
:1005100062680A40042A06D063680B40082B0BD19E
:100520006368DB0308D523689B03BFD56B68002B8A
:10053000BCD1012005B0F0BD6B68012B13D1802325
:1005400022685B0213432360FFF794FE80260700B6
:10055000B60223683342A9D1FFF78CFEC01B642882
:10056000F7D90320E6E7002B16D123688E4A8026B0
:100570001340236023688D4AB60213402360FFF7BF
:1005800079FE07002368334200D18FE7FFF772FE40
:10059000C01B6428F6D9E4E7052B05D18023226827
:1005A000DB0213432360CAE723687F4A13402360BA
:1005B00023687E4A1340C6E70C227A4C63681342D4
:1005C00006D063681340082B10D16368DB030DD499
:1005D00023689B0702D5EB68012BAAD1F82122687A
:1005E0002B698A43DB001343236063E7EA68012336
:1005F000002A0FD02268022613432360FFF73AFE39
:10060000070023683342E9D1FFF734FEC01B0228FC
:10061000F7D9A6E7226802269A432260FFF72AFE4E
:1006200007002368334200D144E7FFF723FEC01BD5
:100630000228F6D995E7EA6901235A4C002A10D01E
:10064000626A022613436362FFF714FE0700636ABF
:10065000334200D032E7FFF70DFEC01B0228F6D967
:100660007FE7626A02269A436262FFF703FE070091
:10067000636A334200D121E7FFF7FCFDC01B02286B
:10068000F6D96EE780220021464C5205E3690091BD
:10069000134208D1E3691343E361E3691340039311
:1006A000039B012300938027414E7F0033683B4228
:1006B00006D0AB68012B13D1226A1343236230E0CA
:1006C00033683B433360FFF7D5FD019033683B420D
:1006D000EFD1FFF7CFFD019BC01A6428F6D940E7A0
:1006E0000122002B14D1236A022793432362236A39
:1006F000033293432362FFF7BDFD0600236A3B42AA
:1007000025D0FFF7B7FD2B4B801B9842F6D928E781
:10071000052B0BD1216A013B0B432362236A1A4349
:100720002262FFF7A7FD022706000DE0236A93432C
:1007300004222362236A9343C0E7FFF79BFD1D4B0E
:10074000801B984200D90CE7236A3B42F5D0009BFE
:10075000012B00D0B6E6E369174A1340E361B1E626
:10076000FFF788FDC01B022800D8BEE6F9E6053277
:1007700003D1626B9A436263BBE6626B022613434A
:1007800001226363636B93436363FFF773FD0700A9
:10079000636B334200D1B3E6FFF76CFDC01B022848
:1007A000F6D9DEE600100240FFFFFEFFFFFFFBFF71
:1007B0000070004088130000FFFFFFEF0C22264C62
:1007C000012063681340082B00D1B3E62368234A55
:1007D0001340236002292FD1FFF74CFD802607002C
:1007E000B6042368334221D10F22E36A9343EA6AB5
:1007F0001343E362696AAB6A62680B431849802558
:100800000A4013436360802322685B041343236020
:10081000FFF730FD0600AD0423682B4200D073E6DD
:10082000FFF728FD801B0228F6D99AE6FFF722FD84
:10083000C01B0228D5D994E6FFF71CFD80250600D1
:10084000AD0423682B4200D15EE6FFF713FD801B49
:100850000228F6D985E6C04600100240FFFFFFFEE1
:10086000FFFFC2FF70B5144C88B01022210068460B
:1008700000F0ECFC210004AD10221031280000F043
:10088000E5FC0C220D4E73681A40082A11D10F2086
:100890006A46990C0140545CF26A0240A95CDB0391
:1008A00005D50748FFF730FC604308B070BD054828
:1008B000FAE70348F9E7C046841A0008001002402E
:1008C00000127A0000093D00F7B50122444C0600F1
:1008D00023680F0013408B421DD33268930724D442
:1008E000D3072AD4012322681A40BA4268D8336851
:1008F0003C4C5B0700D56BE0FFF7B4FF63683A4AF6
:100900001B061B0FD35CD840384B18600020FFF744
:1009100087FC002008E0236893430B43236023688F
:1009200013408B42D9D00120FEBDF0202D494B68E9
:100930008343B06803434B60D2E72A4D72682B684B
:10094000012A1AD19B03EED503216B688B43134315
:100950006B60FFF78FFC73680190012B15D10C229F
:100960006B681340042BBDD0FFF784FC019BC01AB9
:100970001F4B9842F3D90320D6E7022A02D19B01EC
:10098000E2D4D0E79B07DFD4CDE7022B12D00C22B4
:100990006B681342A6D0FFF76DFC019BC01A144B85
:1009A0009842F4D9E7E7FFF765FC019BC01A104BAA
:1009B0009842E0D80C226B681340082BF3D191E7E2
:1009C00022689A43226022681A4200D18FE7AAE780
:1009D0006368084A1340F268134363608CE7C046BB
:1009E00000200240001002406C1D000800000020A2
:1009F00088130000FFF8FFFF014B18687047C046DE
:100A0000000000200278114009094B00C900591864
:100A10000F231A4089180170704770B5040000F068
:100A200085F8D02000F0C2F8002000F0BFF800F0F8
:100A30007DF8D12000F0BAF82500A61D002000F0B6
:100A4000F0F828700135B542F8D1012000F0E9F83E
:100A5000A07100F08BF820007021FFF7D3FF601C1D
:100A60007021FFF7CFFFA01C3021FFF7CBFF201D27
:100A70003021FFF7C7FF601D1021FFF7C3FF2800DB
:100A8000F021FFF7BFFF70BD70B505000C0000F04E
:100A90004DF8D02000F08AF8280000F087F82000F8
:100AA00000F084F800F062F870BD10B5040000F0AA
:100AB0003DF8D02000F07AF8200000F077F800F040
:100AC00035F8D12000F072F8012000F0AAF80400F7
:100AD00000F04CF8200010BD10B51C210E20FFF7CF
:100AE000D3FF00210F20FFF7CFFF0220FFF7DDFF2C
:100AF000BF2101400220FFF7C7FF10BD10B59024B1
:100B00008021E40586B001222000C900FFF7C2FC65
:100B1000C023DB00019311230293002301A92000CD
:100B200003930493FFF700FC06B010BD70B5802658
:100B30009024F600E405012231002000FFF7AAFC12
:100B4000C0468025AD00012229002000FFF7A2FC4D
:100B5000C046002231002000FFF79CFCC046002266
:100B600029002000FFF796FCC04670BD70B58026B6
:100B70009024B600E405002231002000FFF78AFC33
:100B8000C0468025ED00002229002000FFF782FCEE
:100B9000C046012231002000FFF77CFCC046012244
:100BA00029002000FFF776FCC04670BDF8B59026FE
:100BB000070008248025F6052A003A4000D00122CB
:100BC00080213000C900FFF765FCC04680219020DD
:100BD00001228900C005FFF75DFCC04680219020FE
:100BE00000228900C005013CFFF754FC6D08002C71
:100BF000E2D1802190200122C900C005FFF74AFC04
:100C0000C0468021902001228900C005FFF742FCE8
:100C1000C0468021902022008900C005FFF73AFCE1
:100C2000F8BDF0B589B00190802190200122C90063
:100C3000C0059025FFF72EFC08260024ED05802135
:100C4000012289002800FFF725FC6400C0468027A8
:100C50000023FF0003A92800039704930593FFF7DF
:100C600063FB39002800FFF70FFC002801D00123A7
:100C70001C43802101222800C900FFF70BFC11232F
:100C80000397002703A92800049305970697FFF709
:100C90004BFB80213A0089002800FFF7FBFBC04690
:100CA000013EF6B2BE42CAD1019B1A00BB4200D03F
:100CB000012280219020C900C005FFF7EBFBC04650
:100CC0008021902001228900C005FFF7E3FBC04688
:100CD0008021902000228900C005FFF7DBFBC04681
:100CE000802190200122C900C005FFF7D3FBE0B2AC
:100CF00009B0F0BD10B5012490B02822002106A84B
:100D000000F0ADFA10220021684600F0A8FA04A80D
:100D100004940594FFF7C4FB002107236846009361
:100D2000019402910391FFF7CFFD10B010BD0000B8
:100D300070B588B0FFF786FAFFF7DCFF14220021B8
:100D400003A800F08CFA8020374BC00359690024B7
:100D50000143596180215A69890202409020019221
:100D6000019A5A69C0050A435A615B6901220B4026
:100D700002931021029BFFF78DFB10239020039319
:100D800003A90133C005049305940694FFF7CCFA38
:100D90009020E02303A9C005039304940594FFF772
:100DA000C3FAC820FFF76CFA902600F0B8F80120CB
:100DB00000F0AEF8FFF7A2FEFFF78EFEF6051B4D22
:100DC000EC1D2800FFF729FE00F0E6F8AA78184984
:100DD000200000F04DFA2100002000F06BF93A21CC
:100DE0000E2000F027F96A781249200000F040FA3E
:100DF0002100142000F05EF9002000F0DBF800F084
:100E0000C5F8002210213000FFF744FB1E20FFF739
:100E100037FA300001221021FFF73CFB96204000FA
:100E2000FFF72EFACBE7C0460010024084000020F6
:100E3000841D0008881D00089020F8B58026002237
:100E40004021C005FFF726FB134C08273500227808
:100E50002A4000D0012290202021C005FFF71AFB74
:100E6000902001223100C005FFF714FB90200022E2
:100E70003100C005013FFFF70DFB6D08002FE6D1E3
:100E8000064B01349C42E0D1902001224021C00554
:100E9000FFF700FBF8BDC046A2000020AA0000201A
:100EA00070B5002501240B480222030008335B19AA
:100EB00081188E1E34701E78013902320E70013393
:100EC0000A2AF5D101340435FFF7B6FFE4B2202D2C
:100ED000E9D170BDA200002010B5064B1870597002
:100EE0009870D970187159719871D971FFF7A4FF72
:100EF00010BDC046A200002000231900034A08329A
:100F000099540133202BFBD17047C046A20000202A
:100F10000F2110B501400A20FFF7DEFF10BD70B5AC
:100F2000902686B0F6051422002101A800F097F95A
:100F300000223000E021FFF7ADFA0024E023012574
:100F400001A930000193029503940494FFF7ECF992
:100F500021000C20FFF7C0FF21000920FFF7BCFF94
:100F600021000A20FFF7B8FF07210B20FFF7B4FF8D
:100F700021000F20FFF7B0FFFFF7BEFFFFF790FF44
:100F800029000C20FFF7A8FF06B070BD10B5FFF7D1
:100F900087FFFFF7B1FF10BD0023A022180010B596
:100FA000034C52001919013308709342FAD110BD55
:100FB000CA0000202023FF33F0B5984200D900205A
:100FC0000F4B0022C0180F4B01259C460723290018
:100FD000934399404BB21E000021875C3B000B41BC
:100FE0002B4206D04B019B18DB0863441C7A344328
:100FF0001C7201310829F1D10132202AE6D1F0BD5D
:10100000CA000020A200002030B50D0007290CD82E
:101010004023FF33984208D80121A940044C49B22B
:101020002356002A02D00B43235430BD8B43FBE7E9
:10103000CA0000200B00303BDBB2F7B507000A2BDB
:1010400005D90B00413B192B1CD83239CBB20025F6
:1010500001261749DB005B1801930424EBB20093CF
:10106000019B5B5D2341334206D0381D001B80B2DB
:1010700032000099FFF7C8FF013CF1D20135082D7D
:10108000EBD1F7BD0B004033DBB21F2B01D86A3127
:10109000DCE70B232029DAD001332B29D7D0013309
:1010A0002D29D4D001332E29D1D01B33CFE7C04610
:1010B0001C1B000870B504000D002978002900D120
:1010C00070BD200007340135FFF7B4FFA4B2F4E788
:1010D00001200A4B82B099690143996180219A6984
:1010E000490502400092009ADA690A43DA61DB6935
:1010F0000B400193019B02B07047C04600100240B4
:101100007047FEE77047704710B5FFF7ABF810BDAA
:101110000A4B10B519680200002901D1084919606D
:101120006946186882188A4206D900F065F80C23CF
:1011300003600120404210BD1A60FCE70C02002051
:10114000280200200121114B11481A680A431A6035
:101150005A6802405A601A680E4802401A601A68BB
:101160000D4802401A605A680C4802400F205A602D
:10117000DA6A8243DA621A6B094802401A635A6BD0
:101180008A435A6300229A607047C04600100240AA
:101190000CB8FF08FFFFF6FEFFFFFBFFFFFFC0FFDD
:1011A000ECFEFFFF0D4885460D480E490E4A002310
:1011B00002E0D458C4500433C4188C42F9D30B4A0B
:1011C0000B4C002301E013600432A242FBD3FFF773
:1011D000B9FF00F017F8FFF7ABFDFEE700100020A5
:1011E0000000002068000020C81D000868000020E2
:1011F00024020020FEE70000014B18687047C0463B
:101200000400002070B500260C4D0D4C641BA4108A
:10121000A64209D1002600F029FC0A4D0A4C641BA5
:10122000A410A64205D170BDB300EB589847013613
:10123000EEE7B300EB5898470136F2E7C01D00080F
:10124000C01D0008C01D0008C41D0008002310B503
:101250009A4200D110BDCC5CC4540133F8E70300BE
:101260001218934200D1704719700133F9E700005A
:101270000EB400B50B499CB01DAB029006900791CF
:1012800004910948094904CB0591006802A901931A
:1012900000F070F80023029A13701CB008BC03B071
:1012A0001847C046FFFFFF7F040000200802FFFF31
:1012B000F0B58E6885B007000C00039201939E4242
:1012C0003CD890238A89DB001A4234D0032509696F
:1012D00023685B1A0293636902985D43EB0F5D1903
:1012E000019B6D1001331B18AB4200D91D00530543
:1012F00032D52900380000F019FB061E09D10C2355
:101300003B6040230120A28940421343A38105B0E2
:10131000F0BD029A2169FFF799FFA389144A1A4088
:1013200080231343A381029B2661F6182660656122
:10133000019EED1AA560019B9E4200D9019E3200DC
:101340000399206800F095FAA36800209B1BA36016
:1013500023689E192660DAE72A00380000F044FB73
:10136000061EE0D12169380000F096FAC7E7C046B2
:101370007FFBFFFFF0B5A1B003901D008B890F002C
:1013800016001B0611D50B69002B0ED1402100F071
:10139000CDFA38603861002805D10C23039A013852
:1013A000136021B0F0BD40237B61002308AC636172
:1013B000203363761033A376079535002B78002B06
:1013C00001D0252B46D1AB1B05930CD03200390040
:1013D0000398FFF76DFF431C00D1AEE06269059BE7
:1013E0009446634463612B78002B00D1A5E0012271
:1013F00000235242626004A9543252186E1C2360CA
:10140000E360A3601370A36531780522534800F0B0
:1014100025FA751C00281FD12268D30604D5532352
:1014200004A95B1820211970130704D5532304A9BC
:101430005B182B21197033782A2B16D03500002128
:101440000A20E3682A786E1C303A092A4ED900290E
:1014500018D010E00135B1E7404B2268C01A0123D3
:101460008340134323602E00CEE7079B191D1B68A2
:101470000791002B01DB0B9304E05B42E360022346
:10148000134323602B782E2B0AD16B782A2B35D16E
:10149000079B02351A1D1B680792002B2BDB099353
:1014A0002F4E29780322300000F0D8F9002806D00A
:1014B0004023801B83402268013513432360297831
:1014C000062228486E1C217600F0C8F900283CD07E
:1014D000254B002B25D10722079B07339343083365
:1014E00007936369049A9B18636166E7434301218C
:1014F0009B183500A6E701235B42D0E700230A20B2
:101500001A000135636029786E1C3039092903D926
:10151000002BC5D00992C3E742430123521835007E
:10152000F1E707AB00933A00104B2100039800E06D
:1015300000BF0490049B0133D3D1BB890D985B0697
:1015400000D42EE7012040422BE707AB00933A007E
:10155000064B2100039800F079F8EAE78D1D00089A
:10156000931D0008971D000800000000B11200083C
:10157000F7B5150001938A680B6900900C0093423F
:1015800000DA130022002B6043321278002A01D0C7
:1015900001332B6023689B0602D52B6802332B6036
:1015A000062723681F4027D0230043331B785A1E89
:1015B00093412268920630D4220001994332009868
:1015C000089EB047431C25D0062320682A68E1689E
:1015D00003400025042B03D18D1AEB43DB171D407C
:1015E000A3682269934201DD9B1AED180027BD42D2
:1015F00020D1002010E00137E3682A689B1ABB4223
:10160000D2DD22000123193201990098089EB047CB
:10161000431CF0D101204042FEBD3020E11843318F
:10162000087021005A1C45310978A2184332023350
:101630001170C1E7220001231A3201990098089E17
:10164000B047431CE6D00137D1E70000F0B589B0C0
:1016500004920A0043320593039002920A7E0C0022
:101660000E9B6E2A00D186E01FD8632A33D008D89B
:10167000002A00D18CE0582A4DD0250042352A702E
:1016800030E0642A01D0692AF7D1196825680A1D5B
:10169000280629D508681A60002803DA2D23029A43
:1016A000404213706B4E0A274FE0732A74D008D85B
:1016B0006F2A1FD0702AE0D1202209680A432260D5
:1016C00003E0752A16D0782AD7D122007821453236
:1016D0001170614E22E025001A684235111D196013
:1016E00013682B70012365E008681A606906D3D57A
:1016F00000B2D1E719682568081D186008682E0631
:1017000005D5544E08276F2A1BD00A2719E06D060D
:10171000F7D580B2F5E745314E4E0A701868226859
:10172000011D00681960150621D5D30702D52023B5
:101730001A4322601027002803D1202322689A43ED
:1017400022602300002243331A706368A360002BD9
:1017500058DB0422216891432160002854D1029D66
:10176000002B5AD02500337842352B7055E05506B2
:10177000DBD580B2D9E71A680D68101D4969186079
:1017800013682E0601D5196002E06D06FBD519809D
:101790000023029D23614FE01A68111D196015682E
:1017A00000216268280000F059F8002801D0401B91
:1017B0006060636823610023029A13703CE0236930
:1017C0002A0004990398059DA847431C3ED023682E
:1017D0009B0715D4079BE068984239DA180037E078
:1017E00022000123193204990398059EB047431C37
:1017F0002CD00135E368079A9B1AAB42F0DCE9E78D
:101800000025F7E70028ADD0029D3900FEF702FD64
:10181000735C013D2B700028F7D1082F09D1236894
:10182000DB0706D563682269934202DC3023013D61
:101830002B70029B5B1B2361059B07AA0093210071
:10184000049B0398FFF794FE431CB8D1012040424B
:1018500009B0F0BD9E1D0008AF1D0008C9B2821876
:10186000904201D10020704703788B42FBD00130B9
:10187000F6E710B5884202D98B18984203D30023AB
:1018800007E08B5C8354013AFBD210BDCC5CC4549E
:1018900001339A42FAD1F8E770B50500002910D05B
:1018A0000C1F2368002B00DAE418280000F0D4F89D
:1018B0001D4A1368002B05D163601460280000F0F6
:1018C000CCF870BDA34209D9216860188342F3D1D6
:1018D00018685B6841182160EEE713005A68002A17
:1018E00001D0A242F9D919685818A0420BD120683A
:1018F0000918581819608242E0D1106852684118DE
:1019000019605A60DAE7A04202D90C232B60D5E7B0
:1019100021686018824203D1106852684118216022
:1019200062605C60CAE7C04614020020032370B501
:10193000CD1C9D43083506000C2D1ED20C25A94256
:101940001DD8300000F088F8254A146821000029CD
:1019500019D1244C2368002B03D1300000F06AF821
:1019600020602900300000F065F8431C2BD10C23C7
:101970003000336000F071F803E0002DDFDA0C2353
:101980003360002070BD0B685B1B19D40B2B03D98F
:101990000B60CC18256003E04B688C420DD11360BE
:1019A000300000F05AF8200007220B30231D90432E
:1019B000C31AE7D05A42E250E4E763600C00EFE755
:1019C0000C004968C3E70323C41C9C43A042E1D038
:1019D000211A300000F02EF8431CDBD1C7E7C046C7
:1019E0001402002018020020F8B507000D001600B0
:1019F000002905D11100FFF799FF04002000F8BD70
:101A0000002A03D1FFF748FF3400F7E700F026F87B
:101A10002C00B042F2D231003800FFF787FF041EDD
:101A2000ECD029003200FFF711FC29003800FFF745
:101A300033FFE3E7002370B5064C05000800236080
:101A4000FFF766FB431C03D12368002B00D02B60FB
:101A500070BDC04620020020704770470B1F1B68F6
:101A6000181F002B01DA0B58C0187047F8B5C04694
:101A7000F8BC08BC9E467047F8B5C046F8BC08BC28
:041A80009E467047C7
:101A840002030405060708090A0B0C0D0E0F1010BB
:101A94000102030405060708090A0B0C0D0E0F10BA
:101AA40007050505050507000206020202020700F4
:101AB40007010107040407000701010701010700EA
:101AC40005050507010101000704040701010700DA
:101AD40007040407050507000701010101010100CE
:101AE40007050507050507000705050701010700A8
:101AF40000020200020200000000000000000000DA
:101B040000000207020000000000000700000000BF
:101B140007070707070707000E1111111111110E0E
:101B2400040C14040404041F0E1101010E10101FF0
:101B34000E1101060101110E090909111F0101010C
:101B44001F10101E0101110E0E11101E1111110E85
:101B54001F010102040404040E11110E1111110ECF
:101B64000E1111110F01110E000C0C00000C0C00D1
:101B740000000000000000000004041F0404000032
:101B84000000001F000000000000000000000C0C1A
:101B94000E1111111F1111111E11111E1111111EFF
:101BA4000E1110101010110E1E1111111111111E11
:101BB4001F10101E1010101F1F10101E10101010D8
:101BC4000E1110101311110E1111111F11111111F9
:101BD4000E0404040404040E070101010111110E92
:101BE4001112141818141211101010101010101FC4
:101BF40011111B15111111111111191513111111B5
:101C04000E1111111111110E1E1111111E101010AF
:101C14000E1111111115120D1E1111111E14121194
:101C24000E11100C0201110E1F0404040404040418
:101C3400111111111111110E11111111110A0A04AE
:101C44001111111115151B1111110A04040A111196
:101C540011110A0A040404041F0102040408101FD9
:101C64001F1F1F1F1F1F1F1F0E1111111F111111E5
:101C74001F10101E1111111E1E11111E1111111E03
:101C84001F111010101010100E0A0A0A0A0A1F1150
:101C94001F10101E1010101F1515150E15151515F3
:101CA4000E1101060101110E111111131519111153
:101CB40004111113151911111112141818141211F9
:101CC4000F0909090909091111111B151111111124
:101CD4001111111F111111110E1111111111110EE8
:101CE4001F111111111111111E1111111E101010BB
:101CF4000E1110101010110E1F0404040404040427
:101D0400111111110F01110E0E151515150E0404E4
:101D140011110A04040A11111212121212121F01D3
:101D2400111111110F010101151515151515151FA7
:101D34001515151515151F01180808080E09090EA3
:101D44001111111119151519101010101E11111E51
:101D54000E11010F0101110E1215151D1515151285
:101D64000F11110F0305091100000000000000000D
:101D7400010203040607080900000000010203042D
:101D8400253275002530327500232D302B20006854
:101D94006C4C006566674546470030313233343554
:101DA40036373839414243444546003031323334C2
:0C1DB400353637383961626364656600BB
:041DC000E90000082E
:041DC400C100000852
:101DC80000127A0008000020000000000000000057
:101DD80000000000000000000000000000000000FB
:101DE80000000000000000000000000000000000EB
:101DF80000000000000000000000000000000000DB
:101E080000000000000000000000000000000000CA
:101E180000000000000000000000000000000000BA
:081E28000000000000000000B2
:04000005080011A539
:00000001FF
