:020000040800F2
:1000000000100020251F0008711E0008731E000844
:1000100000000000000000000000000000000000E0
:10002000000000000000000000000000751E000835
:100030000000000000000000771E0008791E000884
:10004000751F000800000000751F0008751F0008DC
:10005000751F0008751F0008751F0008751F000830
:1000600000000000751F0008751F0008751F0008BC
:10007000751F0008751F0008751F000800000000AC
:10008000811E00080000000000000000751F00082D
:1000900000000000751F0008751F0008751F00088C
:1000A00000000000751F000800000000751F000818
:1000B0000000000000000000000000000000000040
:1000C00010B5064C2378002B07D1054B002B02D02E
:1000D000044800E000BF0123237010BD6C00002025
:1000E0000000000008280008044B10B5002B03D0C6
:1000F0000349044800E000BF10BDC04600000000F6
:10010000700000200828000802B471464908490020
:10011000095C49008E4402BC7047C04603B4714676
:10012000490840004900095E49008E4403BC7047FD
:10013000002243088B4274D303098B425FD3030A26
:100140008B4244D3030B8B4228D3030C8B420DD339
:10015000FF22090212BA030C8B4202D312120902C7
:1001600065D0030B8B4219D300E0090AC30B8B4205
:1001700001D3CB03C01A5241830B8B4201D38B03B3
:10018000C01A5241430B8B4201D34B03C01A524158
:10019000030B8B4201D30B03C01A5241C30A8B429B
:1001A00001D3CB02C01A5241830A8B4201D38B0286
:1001B000C01A5241430A8B4201D34B02C01A52412A
:1001C000030A8B4201D30B02C01A5241CDD2C3099C
:1001D0008B4201D3CB01C01A524183098B4201D318
:1001E0008B01C01A524143098B4201D34B01C01A03
:1001F000524103098B4201D30B01C01A5241C3087B
:100200008B4201D3CB00C01A524183088B4201D3E9
:100210008B00C01A524143088B4201D34B00C01AD5
:100220005241411A00D20146524110467047FFE741
:1002300001B5002000F006F802BDC0460029F7D045
:1002400076E770477047C0460023C25C0133002A3E
:10025000FBD1581E704710B5040000F0F3FBFA21E3
:100260008900FFF765FF00F06BF8012000222100F4
:10027000404200F031F8002010BD00001023064A73
:1002800010B5116800200B431360FFF7E4FF01F085
:10029000BBFD002010BDC04600200240024A13688A
:1002A000013313607047C04668020020014B186894
:1002B0007047C0466802002037B50190FFF7F6FF8F
:1002C000019C0500631C5A1E9341E418FFF7EEFFE2
:1002D000401BA042FAD337BD30B5FF2503242A00C6
:1002E000C3B21C40E400A24089012940D243A1408E
:1002F00000280BDA0F200340083B0A489B089B00AC
:100300001B18D86902401143D96130BD064B8008E3
:100310008000C018C0239B00C45822401143C15024
:10032000F3E7C04600ED00E000E100E01F231840C5
:100330001E3B8340014A13607047C04600E100E065
:10034000094A431E012093420DD8C021074A08489C
:100350005360036A09061B021B0A0B430362002059
:100360000723906013607047FFFFFF0010E000E07C
:1003700000ED00E0F0B50B6887B003930023019116
:10038000039ADA4001D107B0F0BD01229A400292EF
:100390000299039A0A40009200D18CE0019A102140
:1003A000526816008E43022E0ED107251D40AD0067
:1003B0000139A940DC08A4000419276A8F43019978
:1003C0000969A9400F43276203245F00BC40E4434E
:1003D0000568013E2540AC4603251540BD406146F9
:1003E0000D430560012E0FD801998668CD6826401F
:1003F000BD40354385604668029915098E43012149
:100400000D409D4035434560C56801992C408D687D
:100410008021BD4049052C43C4600A424BD00121D4
:10042000264C0326A5691E400D43A561A4699D08BD
:100430000C400594059C0F242149AD00B6006D18B1
:10044000B4409021AF68C905A743002488420CD06E
:100450001C490134884208D01B490134884204D029
:100460001A490334884200D1023CB44000993C430D
:100470000E00AC60164CCD4327683E43D10301D437
:100480003E002E4026606768009E3E43910301D4E3
:100490003E002E406660A768009E3E43D10201D414
:1004A0003E002E40A660E668009F3743920201D4CA
:1004B0002E403700E760013362E7C046001002407B
:1004C000000001400004004800080048000C0048FB
:1004D0000004014000690840411E8841C0B27047D5
:1004E000002A01D0816170478162FCE7F0B50368A2
:1004F00085B00500DB072FD42B689B0700D581E072
:100500002B681B0700D5BCE02B685B0700D5DFE03C
:100510002B68DB061AD56A69B54C0423012A00D082
:100520004BE1616B02260B436363636B1A436263A7
:10053000FFF7BCFE0700636B334200D136E1F821C0
:10054000626BAB698A43DB0013436363296A00294A
:1005500000D059E1002013E00C21A54C62680A404C
:10056000042A06D063680B40082B0BD16368DB03B9
:1005700008D523689B03BFD56B68002BBCD1012035
:1005800005B0F0BD6B68012B13D1802322685B029C
:1005900013432360FFF78AFE80260700B602236814
:1005A0003342A9D1FFF782FEC01B6428F7D903208C
:1005B000E6E7002B16D123688E4A8026134023607D
:1005C00023688D4AB60213402360FFF76FFE0700D1
:1005D0002368334200D18FE7FFF768FEC01B642811
:1005E000F6D9E4E7052B05D180232268DB0213430B
:1005F0002360CAE723687F4A1340236023687E4A4A
:100600001340C6E70C227A4C6368134206D0636835
:100610001340082B10D16368DB030DD423689B07BC
:1006200002D5EB68012BAAD1F82122682B698A43F5
:10063000DB001343236063E7EA680123002A0FD03D
:100640002268022613432360FFF730FE0700236869
:100650003342E9D1FFF72AFEC01B0228F7D9A6E7EB
:10066000226802269A432260FFF720FE07002368D3
:10067000334200D144E7FFF719FEC01B0228F6D928
:1006800095E7EA6901235A4C002A10D0626A0226D3
:1006900013436362FFF70AFE0700636A334200D028
:1006A00032E7FFF703FEC01B0228F6D97FE7626A34
:1006B00002269A436262FFF7F9FD0700636A33423C
:1006C00000D121E7FFF7F2FDC01B0228F6D96EE743
:1006D00080220021464C5205E3690091134208D163
:1006E000E3691343E361E36913400393039B01232D
:1006F00000938027414E7F0033683B4206D0AB68B1
:10070000012B13D1226A1343236230E033683B4349
:100710003360FFF7CBFD019033683B42EFD1FFF729
:10072000C5FD019BC01A6428F6D940E70122002BC1
:1007300014D1236A022793432362236A033293432B
:100740002362FFF7B3FD0600236A3B4225D0FFF783
:10075000ADFD2B4B801B9842F6D928E7052B0BD11A
:10076000216A013B0B432362236A1A432262FFF78B
:100770009DFD022706000DE0236A934304222362B5
:10078000236A9343C0E7FFF791FD1D4B801B9842FE
:1007900000D90CE7236A3B42F5D0009B012B00D027
:1007A000B6E6E369174A1340E361B1E6FFF77EFD61
:1007B000C01B022800D8BEE6F9E6053203D1626B01
:1007C0009A436263BBE6626B0226134301226363B2
:1007D000636B93436363FFF769FD0700636B334209
:1007E00000D1B3E6FFF762FDC01B0228F6D9DEE6B2
:1007F00000100240FFFFFEFFFFFFFBFF0070004004
:1008000088130000FFFFFFEF0C22264C01206368D5
:100810001340082B00D1B3E62368234A134023601A
:1008200002292FD1FFF742FD80260700B604236876
:10083000334221D10F22E36A9343EA6A1343E3620E
:10084000696AAB6A62680B43184980250A40134302
:100850006360802322685B0413432360FFF726FD57
:100860000600AD0423682B4200D073E6FFF71EFD9F
:10087000801B0228F6D99AE6FFF718FDC01B022854
:10088000D5D994E6FFF712FD80250600AD04236854
:100890002B4200D15EE6FFF709FD801B0228F6D946
:1008A00085E6C04600100240FFFFFFFEFFFFC2FFCB
:1008B00070B5144C88B010222100684601F086FB08
:1008C000210004AD10221031280001F07FFB0C2222
:1008D0000D4E73681A40082A11D10F206A46990CF0
:1008E0000140545CF26A0240A95CDB0305D507486D
:1008F000FFF71EFC604308B070BD0548FAE70348E7
:10090000F9E7C046202800080010024000127A00D3
:1009100000093D00F7B50122444C060023680F0092
:1009200013408B421DD33268930724D4D3072AD4B3
:10093000012322681A40BA4268D833683C4C5B07EE
:1009400000D56BE0FFF7B4FF63683A4A1B061B0F44
:10095000D35CD840384B18600020FFF77CFC0020A7
:1009600008E0236893430B432360236813408B42C2
:10097000D9D00120FEBDF0202D494B688343B068DB
:1009800003434B60D2E72A4D72682B68012A1AD1C3
:100990009B03EED503216B688B4313436B60FFF71A
:1009A00085FC73680190012B15D10C226B681340F4
:1009B000042BBDD0FFF77AFC019BC01A1F4B984255
:1009C000F3D90320D6E7022A02D19B01E2D4D0E773
:1009D0009B07DFD4CDE7022B12D00C226B681342A9
:1009E000A6D0FFF763FC019BC01A144B9842F4D9C0
:1009F000E7E7FFF75BFC019BC01A104B9842E0D879
:100A00000C226B681340082BF3D191E722689A43BC
:100A1000226022681A4200D18FE7AAE76368084A79
:100A20001340F268134363608CE7C0460020024025
:100A300000100240252C000804000020881300004C
:100A4000FFF8FFFF014B18687047C0460400002004
:100A500001220368D96800201143D96019680A434C
:100A60001A607047704770477047704702220368EA
:100A700010B51969040011420ED0D96811420BD08B
:100A8000053A1A619B69043202779B0700D179E02D
:100A9000FFF7E9FF00232377042223681969114235
:100AA00010D0D96811420DD0093A1A610732227765
:100AB0009A69C0239B0020001A4269D0FFF7D3FF38
:100AC0000023237708222368196911420ED0D968C0
:100AD00011420BD0113A1A61DB690D3222772000E6
:100AE0009B075BD0FFF7BFFF00232377102223680B
:100AF0001969114210D0D96811420DD0213A1A61FA
:100B000019322277DA69C0239B0020001A424BD0A9
:100B1000FFF7A9FF002323770122236819691142F7
:100B200007D0D968114204D0033A1A61200000F0BE
:100B3000E5FC802223681969114208D0D968114266
:100B400005D0023AFF3A1A61200000F072F9402203
:100B500023681969114207D0D968114204D0813A3B
:100B60001A612000FFF781FF2022236819691142D2
:100B700007D0D968114204D0413A1A61200000F030
:100B800057F910BDFFF76EFF2000FFF76DFF81E7FB
:100B9000FFF768FF2000FFF767FF91E7FFF762FFAD
:100BA0002000FFF761FF9FE7FFF75CFF2000FFF7E2
:100BB0005BFFAFE7194A10B50368904202D0184CAA
:100BC000A04208D17024A3434C68234390420BD029
:100BD000134CA04208D0134CA04205D0124CA042A6
:100BE00002D0124CA04203D1114C2340CC682343C5
:100BF0008024A3434C69234303608B68C3620B6862
:100C00008362904205D0084B984202D0074B98422D
:100C100001D10B6903630123436110BD002C014026
:100C20000004004000200040004401400048014012
:100C3000FFFCFFFF70B504000120002C14D025003C
:100C40003D352B78DBB2002B05D122003C321370EE
:100C5000200001F0F1F8022320682B70211DFFF71E
:100C6000A9FF012300202B7070BD000030B58468FF
:100C7000034D0A431B022C4013432343836030BDC2
:100C8000FF00FFFFF8B5050002233C352A78040079
:100C90001800012A19D02600012720683D362F7040
:100CA000337083684F4A134083600B68402B00D138
:100CB0006FE016D8102B00D187E007D8002B00D1A9
:100CC0007DE00123002033702870F8BD202B00D177
:100CD00081E0302BF5D17022836893431A003723CB
:100CE00055E0702B33D01BD8502B3BD0602BE8D174
:100CF00010244B68CA68016A3B4FA14301628469B2
:100D000012033C402243A024016A82617022A14365
:100D10001B010B430362836893431A00672336E089
:100D20008022520193420DD0802292019342C8D179
:100D3000CB684A688968FFF799FF80232268DB0146
:100D400091680CE00722836893438360B9E7CB681E
:100D50004A688968FFF78AFF7721226893680B4306
:100D60009360AEE74A68CB68016A046A1B01BC4322
:100D7000F02704628469BC4323430A24A1430A4345
:100D8000836102627022836893431A0057231343DE
:100D9000DBE74A68CB68016A046A1B01BC43F027A1
:100DA00004628469BC4323430A24A1430A43836148
:100DB00002627022836893431A004723E7E7702298
:100DC000836893431A000723E1E770228368934303
:100DD0001A001723DBE77022836893431A00272346
:100DE000D5E7C0468800FFFFFF0FFFFF30B50400C6
:100DF00002223C34257803001000012D17D01D007D
:100E00001B683D352A705A686E3082435A605A68B2
:100E100008684968024380205A609A6882439A6051
:100E20009A6800200A439A6001232B70207030BD1D
:100E30007047704770B504000D0000F02CF9AE202B
:100E400000F089F9200A00F086F9E0B200F083F999
:100E5000280000F080F900F04EF90A20FFF72CFA84
:100E600070BD10B5040000F016F9AE2000F073F963
:100E7000200A00F070F9E0B200F06DF900F00BF913
:100E8000AF2000F068F9012000F0B0F9040000F094
:100E900032F9200010BD0278114009094B00C90049
:100EA00059180F231A4089180170704770B5040053
:100EB00000F0F1F8D02000F04EF9002000F04BF9DE
:100EC00000F0E9F8D12000F046F92500A61D002029
:100ED00000F08CF928700135B542F8D1012000F0FE
:100EE00085F9A07100F007F920007021FFF7D3FF0A
:100EF000601C7021FFF7CFFFA01C3021FFF7CBFF54
:100F0000201D3021FFF7C7FF601D1021FFF7C3FF31
:100F10002800F021FFF7BFFF70BD70B505000C0081
:100F200000F0B9F8D02000F016F9280000F013F90D
:100F3000200000F010F900F0DEF870BD10B50400DC
:100F400000F0A9F8D02000F006F9200000F003F925
:100F500000F0A1F8D12000F0FEF8012000F046F9E1
:100F6000040000F0C8F8200010BD10B51C210E20B0
:100F7000FFF7D3FF00210F20FFF7CFFF0220FFF77D
:100F8000DDFFBF2101400220FFF7C7FF10BD70B594
:100F90000A210500FFF7CCF80A2104012800FFF719
:100FA0004DF961187F2400202140FFF7B6FF70BD86
:100FB00070B50A210500FFF7BBF80A2104012800DB
:100FC000FFF73CF961187F2401202140FFF7A5FFBE
:100FD00070BD70B50A210500FFF7AAF80A210401C7
:100FE0002800FFF72BF96118BF2402202140FFF7EA
:100FF00094FF70BD072110B501400320FFF78DFF5E
:1010000010BD70B50A210500FFF792F80A2104010E
:101010002800FFF713F961183F2404202140FFF74F
:101020007CFF70BD70B50A210500FFF781F80A2129
:1010300004012800FFF702F961181F240520214050
:10104000FFF76BFF70BD70B50A210500FFF770F860
:101050000A2104012800FFF7F1F86118C9B206203F
:10106000FFF75BFF70BD10B590248021E40586B0CA
:1010700001222000C900FFF733FAC023DB000193EF
:1010800011230293002301A9200003930493FFF787
:1010900071F906B010BD70B580269024F600E40505
:1010A000012231002000FFF71BFAC046C046C046AF
:1010B000C046C0468025AD00012229002000FFF770
:1010C0000FFAC046C046C046C046C04600223100A6
:1010D0002000FFF705FAC046C046C046C046C046DD
:1010E000002229002000FFF7FBF9C046C046C04699
:1010F000C046C04670BD70B580269024B600E40599
:10110000002231002000FFF7EBF9C046C046C04680
:10111000C046C0468025ED00002229002000FFF7D0
:10112000DFF9C046C046C046C046C0460122310075
:101130002000FFF7D5F9C046C046C046C046C046AD
:10114000012229002000FFF7CBF9C046C046C04667
:10115000C046C04670BDF8B590260700082480251B
:10116000F6052A003A4000D0012280213000C90053
:10117000FFF7B6F9C046C046C046C046C04680210B
:10118000902001228900C005FFF7AAF9C046C04699
:10119000C046C046C0468021902000228900C0057C
:1011A000013CFFF79DF96D08002CDAD180219020D9
:1011B0000122C900C005FFF793F9C046C046C046EA
:1011C000C046C0468021902001228900C005FFF75B
:1011D00087F9C046C046C046C046C0468021902020
:1011E00022008900C005FFF77BF9F8BDF0B589B092
:1011F0000190802190200122C900C0059025FFF7B1
:101200006FF908260024ED058021012289002800BD
:10121000FFF766F96400C046C046C046C046C046F7
:1012200080270023FF0003A9280003970493059358
:10123000FFF7A0F839002800FFF74CF9002801D08B
:1012400001231C43802101222800C900FFF748F92F
:1012500011230397002703A92800049305970697F5
:10126000FFF788F880213A0089002800FFF738F955
:10127000C046C046C046C046C046013EF6B2BE4269
:10128000C2D1019B1A00BB4200D0012280219020D4
:10129000C900C005FFF724F9C046C046C046C04695
:1012A000C0468021902001228900C005FFF718F96F
:1012B000C046C046C046C046C0468021902000229D
:1012C0008900C005FFF70CF9C046C046C046C046BD
:1012D000C046802190200122C900C005FFF700F917
:1012E000E0B209B0F0BD00000323F7B5794C0090DF
:1012F0006078237004334343774A2033118899423E
:1013000000D890E00026A71C38001680FFF7CEFD1D
:101310001120FFF713FE250043B201934935E3780E
:1013200022796E492800667200F062FE29006C483E
:1013300000F07EFE6079009B0138B34236D119007F
:10134000062807D86749FEF7DFFE050427292B2D5D
:101350002F0007315F4D2F000937AE1C380049358B
:1013600000F066FE32796049280000F041FE290055
:10137000380000F05DFE7079009B0138002B00D032
:1013800076E019000B282BD8FEF7BEFEA028545794
:101390005A5D606366696C6F0F31DBE71931D9E71D
:1013A0002231D7E72931D5E73231D3E7310006289A
:1013B000D0D84C49FEF7A8FE0604080A0C0E10000F
:1013C0004531C7E73931C5E74D31C3E75331C1E78F
:1013D0005B31BFE76331BDE76B31BBE741497F312B
:1013E0002500260009354936280000F021FE227A22
:1013F0003E49300000F0FCFD3100280000F018FEEE
:10140000019A3B49300000F0F3FD3100280000F064
:101410000FFE2800FEF718FF607000F04BFC29005B
:10142000202000F0D5FC2C4B1888421C1A8000F0BC
:101430004FFCF7BD2F490831D2E72E490E31CFE7D7
:101440002C491431CCE72B491831C9E729491D3102
:10145000C6E728492231C3E726492931C0E7254993
:101460003331BDE723493B31BAE722494431B7E77D
:1014700000210B28B4D8FEF747FE09060C0F121501
:10148000181B1E2124261B495431A9E719494D3147
:10149000A6E718495C31A3E716496131A0E7154971
:1014A00068319DE713496C319AE71249713197E72A
:1014B0001049763194E70F497D3191E70E490631A5
:1014C0008EE70D49BAE70C49153189E705497731AF
:1014D00086E7C04688000020000000203D2C000860
:1014E0009100002040280008462C00084B2C0008E2
:1014F000532C0008C0280008402900080C4B1A781B
:10150000002A03D01A78013AD2B21A701900593160
:101510000A78002A03D00A78013AD2B20A705A3304
:101520001A78002A03D01A78013AD2B21A7070479A
:101530008800002010B5012490B02822002106A8C0
:1015400000F04DFD10220021684600F048FD04A87F
:1015500004940594FEF7CAFF002107236846009310
:10156000019402910391FFF7D5F910B010BD00006E
:10157000F0B58FB0FEF782FEFFF7DCFF14220021EA
:1015800009A800F02CFD8020D54BC0035969002527
:101590000143596180215A698902024090200592D5
:1015A000059A5A69C0050A435A615B6901220B40DA
:1015B00006931021069BFEF793FF90200824012636
:1015C00009A9C00509940A950B96FEF7D3FE902051
:1015D0001123102709A9C0050A9309970B950C95AB
:1015E000FEF7C8FEDC239020DB0009A9C0050993A3
:1015F0000A950B95FEF7BEFE3A00290009A800F0F7
:10160000EEFC2200290007A800F0E9FCB54CB64B1F
:1016100020002360B54BA560636063232561E36010
:10162000A561FFF707FB802309A95B01200009934F
:10163000FFF728FB07A9200007950895FFF7D6FBC1
:101640002000FFF705FA6420FEF736FE00F0A1FA4D
:10165000FFF709FDFFF789FC2800FFF702FC0723CD
:10166000A34C184023005B331870029000F08AFAF4
:101670003000FFF7F6FB032318402300020003901D
:101680005C331A70B2E01423052D00D03223A61C5F
:1016900030002370FFF70AFC00F00CFB012D1AD17B
:1016A0009449002000F0A2FB23005C33187801303D
:1016B000C0B226006B1E49360200012B49D88E4964
:1016C000300000F095FC31001B2000F081FB002071
:1016D00000F0FEFAE1E0022D06D18849002000F07A
:1016E00085FB23005B33E1E7032D05D1002084490E
:1016F00000F07CFBB078DCE7042D05D100208149A7
:1017000000F074FB7078D4E7052D05D100207E49E8
:1017100000F06CFBA078CCE70020062D04D17B49BB
:1017200000F064FBF078C4E7072D04D1784900F09D
:101730005DFB3079BDE7082D04D1764900F056FBFA
:101740007079B6E7092DB4D1734900F04FFBB07939
:10175000AFE77249300000F04BFC31001420B4E7D1
:10176000230059331A78002A40D1902005320821ED
:10177000C0051A70FEF7AEFE002837D12300012203
:101780005D337EE7230059331E78F6B2002E2DD14B
:1017900090200821C005FEF79DFE23005D33002840
:1017A00000D010E102221A702300FD325A3368E79C
:1017B00023005A331B78CC2B7ED82300042200262A
:1017C0005D331A70564B053A26701A80012D00D0F1
:1017D000FBE023005C331F78039B9F4200D102E1B2
:1017E00039002800FFF726FB039700252378002BFC
:1017F00055D1002D00D046E723005C331B78002B29
:1018000022D12600A71C3233493638002370FFF757
:101810004DFB00F04FFA22794249300000F0E8FB1E
:101820003100280000F0D4FA3A210E2000F090FA9E
:10183000E2783A49300000F0DBFB1420310000F080
:10184000C7FA280000F044FA23005C331B78012B10
:1018500002D10020FFF748FD23005C331B78022BE8
:1018600002D10120FFF740FD23005C331B78032BDE
:1018700013D1A61C3000260011332370FFF716FB8E
:10188000A1784936E378227930000091264900F0AA
:10189000AFFB3100002000F0FFF900F0B1F92300A8
:1018A0005D3318780528A1D8FEF738FC5AFF6CFF85
:1018B00082FF400068007C00260059363378002BF8
:1018C00094D1902005270821C0053770FEF702FE4D
:1018D00000288BD0230003225D331A70377085E710
:1018E000001002406C020020000400401F030000B2
:1018F000880000206B2C0008912C0008702C000838
:10190000752C0008792C00087D2C0008812C00081B
:10191000852C0008892C00088D2C00084E2C00080E
:1019200000000020582C00085C2C000823005933CC
:101930001E78F6B2002E00D058E790200821C0058E
:10194000FEF7C8FD002800D150E723005D331E706C
:10195000002D00D14AE70122534B524226701A80D3
:10196000012D46D123005C331B780133DBB2032BFE
:1019700000D9330022005C32137037E72600593655
:101980003378002B00D031E7902005270821C005CF
:101990003770FEF79FFD002800D027E723005D3356
:1019A0001F709BE7230059331E78F6B2002E00D03B
:1019B0001CE790200821C005FEF78CFD002800D10F
:1019C00014E723005D331E7010E7022D0BD12300B6
:1019D0005B331F78029B9F4205D039003000FFF730
:1019E00029FA029701E70135EDB2092D00D9FCE68D
:1019F000FCE6022D0ED123005B331F780137FFB2C6
:101A0000072F00D93700380000F0BCF823005B3303
:101A10001F70EBE6032D08D120790130C0B21728E2
:101A200000D93000FFF7D5FAE0E6042D08D1E078C0
:101A30000130C0B23B2800D93000FFF7B9FAD5E633
:101A4000052D03D13000FFF7A2FACFE6062D08D10D
:101A500060790130C0B2072800D90120FFF7CAFA27
:101A6000C4E6072D08D1A0790130C0B21F2800D9E3
:101A70000120FFF7C6FAB9E6082D08D1E079013058
:101A8000C0B20C2800D90120FFF7CCFAAEE6092D30
:101A900000D0ABE6207A0130C0B2632800D9002024
:101AA000FFF7D1FAA2E6C046000000209020F8B56A
:101AB000802600224021C005FEF712FD134C0827A6
:101AC000350022782A4000D0012290203100C00544
:101AD000FEF706FD902001222021C005FEF700FD43
:101AE000902000222021C005013FFEF7F9FC6D087F
:101AF000002FE6D1064B01349C42E0D19020012218
:101B00004021C005FEF7ECFCF8BDC046ED0000200A
:101B1000F500002070B5002501240B4802220300C7
:101B200008335B1981188E1E34701E780139023219
:101B30000E7001330A2AF5D101340435FFF7B6FFE0
:101B4000E4B2202DE9D170BDED00002010B5064BA8
:101B5000187059709870D970187159719871D9713D
:101B6000FFF7A4FF10BDC046ED00002000231900C0
:101B7000034A083299540133202BFBD17047C046E9
:101B8000ED0000200F2110B501400A20FFF7DEFF15
:101B900010BD70B5902686B0F6051422002101A86C
:101BA00000F01DFA00223000E021FEF799FC00242D
:101BB000E023012501A930000193029503940494C8
:101BC000FEF7D8FB21000C20FFF7C0FF2100092001
:101BD000FFF7BCFF21000A20FFF7B8FF07210B2009
:101BE000FFF7B4FF21000F20FFF7B0FFFFF7BEFFA4
:101BF000FFF790FF29000C20FFF7A8FF06B070BD8B
:101C000010B5FFF787FFFFF7B1FF10BD0B00F0B570
:101C1000303BDBB285B00A2B0AD90B23202907D031
:101C200001332B2904D02D394B1E99410B000D3364
:101C300000220727DB0000930099154B0125CB18E4
:101C40009B5C0193530102930223C11803910199F4
:101C50001941294214D003991F26CC1AE4B221005D
:101C60003140029E89190B4EC908B4463E00A64376
:101C700034002E00A640340061440E7A34430C72C6
:101C8000013BE4D20132072AD6D105B0F0BDC046EF
:101C90005D290008ED00002070B504000D002978D2
:101CA000002900D170BD200004340135FFF7AEFFDC
:101CB000E4B2F4E70023A022180010B5034C520050
:101CC0001919013308709342FAD110BD1501002093
:101CD0002023FF33F0B5984200D900200F4B00229B
:101CE000C0180F4B01259C460723290093439940B8
:101CF0004BB21E000021875C3B000B412B4206D0FB
:101D00004B019B18DB0863441C7A34431C7201317D
:101D10000829F1D10132202AE6D1F0BD15010020B9
:101D2000ED00002030B50D0007290CD84023FF330B
:101D3000984208D80121A940044C49B22356002AF0
:101D400002D00B43235430BD8B43FBE71501002029
:101D50000B00303BDBB2F7B507000A2B05D90B00AF
:101D6000413B192B1CD83239CBB20025012617492B
:101D7000DB005B1801930424EBB20093019B5B5DD5
:101D80002341334206D0381D001B80B23200009937
:101D9000FFF7C8FF013CF1D20135082DEBD1F7BDAB
:101DA0000B004033DBB21F2B01D86A31DCE70B2379
:101DB0002029DAD001332B29D7D001332D29D4D0D3
:101DC00001332E29D1D01B33CFE7C046D5290008D7
:101DD00070B504000D002978002900D170BD2000E5
:101DE00007340135FFF7B4FFA4B2F4E770B504007F
:101DF0000D002978002900D170BDA0B2063401354C
:101E0000FFF7A6FFE4B2F4E701200A4B82B099691C
:101E10000143996180219A69490502400092009A24
:101E2000DA690A43DA61DB690B400193019B02B076
:101E30007047C0460010024007B50B4B02689A423B
:101E400010D10220094AD1690143D161D36900222E
:101E5000034001930E301100019BFEF73DFA102064
:101E6000FEF764FA07BDC0460004004000100240BF
:101E70007047FEE77047704710B5FEF70FFA10BDC8
:101E800010B50248FEF7F2FD10BDC0466C020020FE
:101E90000A4B10B519680200002901D108491960E0
:101EA0006946186882188A4206D900F065F80C2342
:101EB00003600120404210BD1A60FCE75802002078
:101EC000B00200200121114B11481A680A431A6020
:101ED0005A6802405A601A680E4802401A601A682E
:101EE0000D4802401A605A680C4802400F205A60A0
:101EF000DA6A8243DA621A6B094802401A635A6B43
:101F00008A435A6300229A607047C046001002401C
:101F10000CB8FF08FFFFF6FEFFFFFBFFFFFFC0FF4F
:101F2000ECFEFFFF0D4885460D480E490E4A002382
:101F300002E0D458C4500433C4188C42F9D30B4A7D
:101F40000B4C002301E013600432A242FBD3FFF7E5
:101F5000B9FF00F017F8FFF70BFBFEE700100020B9
:101F6000000000206C000020D02C00086C00002035
:101F7000B0020020FEE70000014B18687047C04621
:101F80000800002070B500260C4D0D4C641BA410F9
:101F9000A64209D1002600F037FC0A4D0A4C641B0A
:101FA000A410A64205D170BDB300EB589847013686
:101FB000EEE7B300EB5898470136F2E7C82C00086B
:101FC000C82C0008C82C0008CC2C0008002310B531
:101FD0009A4200D110BDCC5CC4540133F8E7030031
:101FE0001218934200D1704719700133F9E70000CD
:101FF0000EB400B50B499CB01DAB02900690079142
:1020000004910948094904CB0591006802A901938C
:1020100000F07EF80023029A13701CB008BC03B0D5
:102020001847C046FFFFFF7F080000200802FFFF9F
:10203000020010B51378541C002B05D1CC5CD4548D
:102040000133002CFAD110BD2200F3E7F0B58E6801
:1020500085B007000C00039201939E423CD8902368
:102060008A89DB001A4234D00325096923685B1A88
:102070000293636902985D43EB0F5D19019B6D103C
:1020800001331B18AB4200D91D00530532D529007E
:10209000380000F019FB061E09D10C233B604023D9
:1020A0000120A28940421343A38105B0F0BD029AEA
:1020B0002169FFF78BFFA389144A1A408023134339
:1020C000A381029B2661F61826606561019EED1AC8
:1020D000A560019B9E4200D9019E320003992068B1
:1020E00000F095FAA36800209B1BA36023689E194B
:1020F0002660DAE72A00380000F044FB061EE0D133
:102100002169380000F096FAC7E7C0467FFBFFFF61
:10211000F0B5A1B003901D008B890F0016001B06BF
:1021200011D50B69002B0ED1402100F0CDFA38609B
:102130003861002805D10C23039A0138136021B0BF
:10214000F0BD40237B61002308AC636120336376DC
:102150001033A376079535002B78002B01D0252B63
:1021600046D1AB1B05930CD0320039000398FFF722
:102170006DFF431C00D1AEE06269059B9446634449
:1021800063612B78002B00D1A5E00122002352428D
:10219000626004A9543252186E1C2360E360A3608D
:1021A0001370A36531780522534800F025FA751C99
:1021B00000281FD12268D30604D5532304A95B1835
:1021C00020211970130704D5532304A95B182B2170
:1021D000197033782A2B16D0350000210A20E368C5
:1021E0002A786E1C303A092A4ED9002918D010E0FE
:1021F0000135B1E7404B2268C01A012383401343E5
:1022000023602E00CEE7079B191D1B680791002B4A
:1022100001DB0B9304E05B42E36002231343236082
:102220002B782E2B0AD16B782A2B35D1079B0235C0
:102230001A1D1B680792002B2BDB09932F4E297860
:102240000322300000F0D8F9002806D04023801B7C
:1022500083402268013513432360297806222848E9
:102260006E1C217600F0C8F900283CD0254B002BCD
:1022700025D10722079B07339343083307936369EC
:10228000049A9B18636166E7434301219B1835005C
:10229000A6E701235B42D0E700230A201A0001359C
:1022A000636029786E1C3039092903D9002BC5D009
:1022B0000992C3E74243012352183500F1E707AB07
:1022C00000933A00104B2100039800E000BF0490F7
:1022D000049B0133D3D1BB890D985B0600D42EE754
:1022E000012040422BE707AB00933A00064B210048
:1022F000039800F079F8EAE7952C00089B2C000879
:102300009F2C0008000000004D200008F7B51500C4
:1023100001938A680B6900900C00934200DA130065
:1023200022002B6043321278002A01D001332B6047
:1023300023689B0602D52B6802332B60062723688F
:102340001F4027D0230043331B785A1E9341226835
:10235000920630D42200019943320098089EB0477B
:10236000431C25D0062320682A68E1680340002525
:10237000042B03D18D1AEB43DB171D40A3682269A0
:10238000934201DD9B1AED180027BD4220D10020A9
:1023900010E00137E3682A689B1ABB42D2DD2200B5
:1023A0000123193201990098089EB047431CF0D1CF
:1023B00001204042FEBD3020E11843310870210069
:1023C0005A1C45310978A218433202331170C1E713
:1023D000220001231A3201990098089EB047431C3D
:1023E000E6D00137D1E70000F0B589B004920A00C9
:1023F00043320593039002920A7E0C000E9B6E2AD4
:1024000000D186E01FD8632A33D008D8002A00D133
:102410008CE0582A4DD0250042352A7030E0642ADD
:1024200001D0692AF7D1196825680A1D280629D51F
:1024300008681A60002803DA2D23029A40421370BC
:102440006B4E0A274FE0732A74D008D86F2A1FD02A
:10245000702AE0D1202209680A43226003E0752A2D
:1024600016D0782AD7D12200782145321170614EDA
:1024700022E025001A684235111D196013682B707F
:10248000012365E008681A606906D3D500B2D1E778
:1024900019682568081D186008682E0605D5544E71
:1024A00008276F2A1BD00A2719E06D06F7D580B2DE
:1024B000F5E745314E4E0A7018682268011D006824
:1024C0001960150621D5D30702D520231A432260AF
:1024D0001027002803D1202322689A43226023007A
:1024E000002243331A706368A360002B58DB042278
:1024F000216891432160002854D1029D002B5AD0BD
:102500002500337842352B7055E05506DBD580B277
:10251000D9E71A680D68101D4969186013682E06FE
:1025200001D5196002E06D06FBD519800023029DDC
:1025300023614FE01A68111D196015680021626857
:10254000280000F059F8002801D0401B6060636843
:1025500023610023029A13703CE023692A00049946
:102560000398059DA847431C3ED023689B0715D4BC
:10257000079BE068984239DA180037E0220001230F
:10258000193204990398059EB047431C2CD001359D
:10259000E368079A9B1AAB42F0DCE9E70025F7E70E
:1025A0000028ADD0029D3900FDF748FE735C013D67
:1025B0002B700028F7D1082F09D12368DB0706D537
:1025C00063682269934202DC3023013D2B70029B39
:1025D0005B1B2361059B07AA00932100049B0398C2
:1025E000FFF794FE431CB8D10120404209B0F0BD72
:1025F000A62C0008B72C0008C9B28218904201D15D
:102600000020704703788B42FBD00130F6E710B50D
:10261000884202D98B18984203D3002307E08B5CD1
:102620008354013AFBD210BDCC5CC45401339A42AE
:10263000FAD1F8E770B50500002910D00C1F236807
:10264000002B00DAE418280000F0D4F81D4A1368C3
:10265000002B05D163601460280000F0CCF870BD39
:10266000A34209D9216860188342F3D118685B68D6
:1026700041182160EEE713005A68002A01D0A242F7
:10268000F9D919685818A0420BD1206809185818B0
:1026900019608242E0D110685268411819605A608E
:1026A000DAE7A04202D90C232B60D5E72168601835
:1026B000824203D1106852684118216062605C60F8
:1026C000CAE7C04660020020032370B5CD1C9D43BD
:1026D000083506000C2D1ED20C25A9421DD830004D
:1026E00000F088F8254A14682100002919D1244CEB
:1026F0002368002B03D1300000F06AF82060290025
:10270000300000F065F8431C2BD10C2330003360FF
:1027100000F071F803E0002DDFDA0C2333600020B5
:1027200070BD0B685B1B19D40B2B03D90B60CC1845
:10273000256003E04B688C420DD11360300000F03F
:102740005AF8200007220B30231D9043C31AE7D00C
:102750005A42E250E4E763600C00EFE70C0049687E
:10276000C3E70323C41C9C43A042E1D0211A3000DC
:1027700000F02EF8431CDBD1C7E7C0466002002002
:1027800064020020F8B507000D001600002905D1ED
:102790001100FFF799FF04002000F8BD002A03D1C3
:1027A000FFF748FF3400F7E700F026F82C00B042AE
:1027B000F2D231003800FFF787FF041EECD0290069
:1027C0003200FFF703FC29003800FFF733FFE3E78F
:1027D000002370B5064C050008002360FFF758FB86
:1027E000431C03D12368002B00D02B6070BDC04672
:1027F000AC020020704770470B1F1B68181F002B8E
:1028000001DA0B58C0187047F8B5C046F8BC08BCD0
:102810009E467047F8B5C046F8BC08BC9E46704757
:1028200002030405060708090A0B0C0D0E0F101011
:102830000102030405060708090A0B0C0D0E0F1010
:102840004D4F4E444159005455455344415900574A
:1028500045444E4553444159005448555253444110
:10286000590046524944415900534154555244413C
:10287000590053554E44415900CFCECDC5C4C5CBA8
:10288000DCCDC8CA00C2D2CED0CDC8CA00D1D0C516
:10289000C4C000D7C5D2C2C5D0C300CFDFD2CDC817
:1028A000D6C000D1D3C1C1CED2C000C2CED1CAD011
:1028B000C5D1C5CDDCC5004A414E554152590046EF
:1028C00045425255415259004D41524348004150F2
:1028D00052494C004D4159004A554E45004A554C0D
:1028E00059004155475553540053455054454D42A6
:1028F0004552004F43544F424552004E4F56454DAE
:1029000042455200444543454D42455200DFCDC249
:10291000C0D0DC00D4C5C2D0C0CBDC00CCC0D0D28B
:1029200000C0CFD0C5CBDC00CCC0C900C8DECDDC38
:1029300000C8DECBDC00C0C2C3D3D1D200D1C5CD2C
:10294000D2DFC1D0DC00CECAD2DFC1D0DC00CDCE18
:10295000DFC1D0DC00C4C5CAC0C1D0DC000705059A
:102960000505050700020602020202070007010131
:102970000704040700070101070101070005050519
:10298000070101010007040407010107000704040F
:102990000705050700070101010101010007050501
:1029A00007050507000705050701010700000202EA
:1029B0000002020000000000000000000000000211
:1029C00007020000000000000700000000070707E2
:1029D00007070707000E1111111111110E040C1435
:1029E000040404041F0E1101010E10101F0E11012A
:1029F000060101110E090909111F0101011F101023
:102A00001E0101110E0E11101E1111110E1F0101D8
:102A100002040404040E11110E1111110E0E1111F5
:102A2000110F01110E000C0C00000C0C0000000036
:102A300000000000000004041F0404000000000067
:102A40001F000000000000000000000C0C0E11111F
:102A5000111F1111111E11111E1111111E0E111035
:102A6000101010110E1E1111111111111E1F101036
:102A70001E1010101F1F10101E101010100E11101D
:102A8000101311110E1111111F111111110E040447
:102A9000040404040E070101010111110E111214A6
:102AA0001818141211101010101010101F11111BF3
:102AB000151111111111111915131111110E1111F7
:102AC000111111110E1E1111111E1010100E1111E5
:102AD000111115120D1E1111111E1412110E1110CB
:102AE0000C0201110E1F040404040404041111114A
:102AF000111111110E11111111110A0A04111111E4
:102B00001115151B1111110A04040A111111110AD2
:102B10000A040404041F0102040408101F1F1F1FDD
:102B20001F1F1F1F1F0E1111111F1111111F101038
:102B30001E1111111E1E11111E1111111E1F111037
:102B400010101010100E0A0A0A0A0A1F111F101086
:102B50001E1010101F1515150E151515150E110147
:102B6000060101110E111111131519111104111182
:102B7000131519111111121418181412110F090933
:102B8000090909091111111B151111111111111147
:102B90001F111111110E1111111111110E1F11110F
:102BA00011111111111E1111111E1010100E111002
:102BB000101010110E1F0404040404040411111158
:102BC000110F01110E0E151515150E040411110A21
:102BD00004040A11111212121212121F0111111102
:102BE000110F010101151515151515151F151515D1
:102BF0001515151F01180808080E09090E111111E5
:102C00001119151519101010101E11111E0E110199
:102C10000F0101110E1215151D151515120F1111A9
:102C20000F0305091100000000000000000102036D
:102C30000406070809000000000102030425753A94
:102C400025303275200020257520002032302530B7
:102C500032750020252B6400253275002530327531
:102C60003A253032753A25303275004D4F444500D3
:102C70004252494700484F55004D494E0053454385
:102C80000044415900444154004D4F4E00594541C4
:102C90000025317500232D302B2000686C4C006519
:102CA0006667454647003031323334353637383978
:102CB00041424344454600303132333435363738AB
:082CC00039616263646566007E
:042CC800E900000817
:042CCC00C10000083B
:102CD000FFFF000000127A000C000020000000003E
:102CE00000000000000000000000000000000000E4
:102CF00000000000000000000000000000000000D4
:102D000000000000000000000000000000000000C3
:102D100000000000000000000000000000000000B3
:102D200000000000000000000000000000000000A3
:0C2D300000000000000000000000000097
:0400000508001F25AB
:00000001FF
