:020000040800F2
:1000000000100020ED1C0008391C00083B1C0008F3
:1000100000000000000000000000000000000000E0
:100020000000000000000000000000003D1C00086F
:1000300000000000000000003F1C0008411C0008F8
:100040003D1D0008000000003D1D00083D1D00088A
:100050003D1D00083D1D00083D1D00083D1D000818
:10006000000000003D1D00083D1D00083D1D00086A
:100070003D1D00083D1D00083D1D0008000000005A
:10008000491C000800000000000000003D1D0008A1
:10009000000000003D1D00083D1D00083D1D00083A
:1000A000000000003D1D0008000000003D1D00088C
:1000B0000000000000000000000000000000000040
:1000C00010B5064C2378002B07D1054B002B02D02E
:1000D000044800E000BF0123237010BD6C00002025
:1000E00000000000D0250008044B10B5002B03D001
:1000F0000349044800E000BF10BDC04600000000F6
:1001000070000020D025000802B47146490849005B
:10011000095C49008E4402BC7047C0460022430877
:100120008B4274D303098B425FD3030A8B4244D3BF
:10013000030B8B4228D3030C8B420DD3FF22090201
:1001400012BA030C8B4202D31212090265D0030BC0
:100150008B4219D300E0090AC30B8B4201D3CB03B6
:10016000C01A5241830B8B4201D38B03C01A5241F8
:10017000430B8B4201D34B03C01A5241030B8B42FA
:1001800001D30B03C01A5241C30A8B4201D3CB02E5
:10019000C01A5241830A8B4201D38B02C01A5241CA
:1001A000430A8B4201D34B02C01A5241030A8B42CD
:1001B00001D30B02C01A5241CDD2C3098B4201D3E5
:1001C000CB01C01A524183098B4201D38B01C01A63
:1001D000524143098B4201D34B01C01A52410309DA
:1001E0008B4201D30B01C01A5241C3088B4201D389
:1001F000CB00C01A524183088B4201D38B00C01A36
:10020000524143088B4201D34B00C01A5241411A5C
:1002100000D20146524110467047FFE701B5002069
:1002200000F006F802BDC0460029F7D076E7704717
:100230007047C0460023C25C0133002AFBD1581E20
:10024000704710B5040000F0F3FBFA218900FFF7B6
:1002500065FF00F06BF8012000222100404200F011
:1002600031F8002010BD00001023064A10B51168B7
:1002700000200B431360FFF7E4FF01F0A9FC00200E
:1002800010BDC04600200240024A136801331360CB
:100290007047C04620030020014B18687047C046D5
:1002A0002003002037B50190FFF7F6FF019C050001
:1002B000631C5A1E9341E418FFF7EEFF401BA04257
:1002C000FAD337BD30B5FF2503242A00C3B21C4042
:1002D000E400A24089012940D243A14000280BDA62
:1002E0000F200340083B0A489B089B001B18D86955
:1002F00002401143D96130BD064B80088000C01810
:10030000C0239B00C45822401143C150F3E7C046AC
:1003100000ED00E000E100E01F2318401E3B834099
:10032000014A13607047C04600E100E0094A431EDD
:10033000012093420DD8C021074A08485360036A40
:1003400009061B021B0A0B4303620020072390606F
:1003500013607047FFFFFF0010E000E000ED00E0D9
:10036000F0B50B6887B0039300230191039ADA403C
:1003700001D107B0F0BD01229A4002920299039A7E
:100380000A40009200D18CE0019A102152681600B8
:100390008E43022E0ED107251D40AD000139A94024
:1003A000DC08A4000419276A8F4301990969A94050
:1003B0000F43276203245F00BC40E4430568013E0D
:1003C0002540AC4603251540BD4061460D43056000
:1003D000012E0FD801998668CD682640BD4035436F
:1003E00085604668029915098E4301210D409D40A4
:1003F00035434560C56801992C408D688021BD401A
:1004000049052C43C4600A424BD00121264C0326E7
:10041000A5691E400D43A561A4699D080C40059483
:10042000059C0F242149AD00B6006D18B440902101
:10043000AF68C905A743002488420CD01C49013489
:10044000884208D01B490134884204D01A49033439
:10045000884200D1023CB44000993C430E00AC609D
:10046000164CCD4327683E43D10301D43E002E40B5
:1004700026606768009E3E43910301D43E002E40F3
:100480006660A768009E3E43D10201D43E002E4024
:10049000A660E668009F3743920201D42E403700E1
:1004A000E760013362E7C0460010024000000140EF
:1004B0000004004800080048000C00480004014007
:1004C00000690840411E8841C0B27047002A01D02F
:1004D000816170478162FCE7F0B5036885B0050073
:1004E000DB072FD42B689B0700D581E02B681B0707
:1004F00000D5BCE02B685B0700D5DFE02B68DB068E
:100500001AD56A69B54C0423012A00D04BE1616B0E
:1005100002260B436363636B1A436263FFF7BCFEFF
:100520000700636B334200D136E1F821626BAB699F
:100530008A43DB0013436363296A002900D059E131
:10054000002013E00C21A54C62680A40042A06D062
:1005500063680B40082B0BD16368DB0308D5236865
:100560009B03BFD56B68002BBCD1012005B0F0BD4B
:100570006B68012B13D1802322685B021343236035
:10058000FFF78AFE80260700B60223683342A9D10E
:10059000FFF782FEC01B6428F7D90320E6E7002B93
:1005A00016D123688E4A80261340236023688D4A23
:1005B000B60213402360FFF76FFE07002368334243
:1005C00000D18FE7FFF768FEC01B6428F6D9E4E787
:1005D000052B05D180232268DB0213432360CAE781
:1005E00023687F4A1340236023687E4A1340C6E78E
:1005F0000C227A4C6368134206D063681340082BC0
:1006000010D16368DB030DD423689B0702D5EB6828
:10061000012BAAD1F82122682B698A43DB001343FE
:10062000236063E7EA680123002A0FD022680226CC
:1006300013432360FFF730FE070023683342E9D1FC
:10064000FFF72AFEC01B0228F7D9A6E72268022678
:100650009A432260FFF720FE07002368334200D14F
:1006600044E7FFF719FEC01B0228F6D995E7EA69AF
:1006700001235A4C002A10D0626A02261343636297
:10068000FFF70AFE0700636A334200D032E7FFF744
:1006900003FEC01B0228F6D97FE7626A02269A434E
:1006A0006262FFF7F9FD0700636A334200D121E778
:1006B000FFF7F2FDC01B0228F6D96EE78022002169
:1006C000464C5205E3690091134208D1E369134394
:1006D000E361E36913400393039B012300938027A5
:1006E000414E7F0033683B4206D0AB68012B13D1EB
:1006F000226A1343236230E033683B433360FFF7E1
:10070000CBFD019033683B42EFD1FFF7C5FD019B64
:10071000C01A6428F6D940E70122002B14D1236ABD
:10072000022793432362236A033293432362FFF732
:10073000B3FD0600236A3B4225D0FFF7ADFD2B4BEE
:10074000801B9842F6D928E7052B0BD1216A013B83
:100750000B432362236A1A432262FFF79DFD02279F
:1007600006000DE0236A934304222362236A934325
:10077000C0E7FFF791FD1D4B801B984200D90CE7A5
:10078000236A3B42F5D0009B012B00D0B6E6E3691B
:10079000174A1340E361B1E6FFF77EFDC01B022854
:1007A00000D8BEE6F9E6053203D1626B9A43626374
:1007B000BBE6626B0226134301226363636B9343C0
:1007C0006363FFF769FD0700636B334200D1B3E653
:1007D000FFF762FDC01B0228F6D9DEE600100240DA
:1007E000FFFFFEFFFFFFFBFF0070004088130000CB
:1007F000FFFFFFEF0C22264C012063681340082BFB
:1008000000D1B3E62368234A1340236002292FD185
:10081000FFF742FD80260700B6042368334221D14A
:100820000F22E36A9343EA6A1343E362696AAB6A9D
:1008300062680B43184980250A4013436360802394
:1008400022685B0413432360FFF726FD0600AD0416
:1008500023682B4200D073E6FFF71EFD801B0228A1
:10086000F6D99AE6FFF718FDC01B0228D5D994E601
:10087000FFF712FD80250600AD0423682B4200D14E
:100880005EE6FFF709FD801B0228F6D985E6C04623
:1008900000100240FFFFFFFEFFFFC2FF70B5144CC7
:1008A00088B010222100684601F074FA210004ADDE
:1008B00010221031280001F06DFA0C220D4E7368E1
:1008C0001A40082A11D10F206A46990C0140545C45
:1008D000F26A0240A95CDB0305D50748FFF71EFC5E
:1008E000604308B070BD0548FAE70348F9E7C04621
:1008F000E82500080010024000127A0000093D00BF
:10090000F7B50122444C060023680F0013408B42C8
:100910001DD33268930724D4D3072AD40123226835
:100920001A40BA4268D833683C4C5B0700D56BE08C
:10093000FFF7B4FF63683A4A1B061B0FD35CD8402D
:10094000384B18600020FFF77CFC002008E023688B
:1009500093430B432360236813408B42D9D001207B
:10096000FEBDF0202D494B688343B06803434B60C4
:10097000D2E72A4D72682B68012A1AD19B03EED563
:1009800003216B688B4313436B60FFF785FC73682F
:100990000190012B15D10C226B681340042BBDD0A4
:1009A000FFF77AFC019BC01A1F4B9842F3D9032032
:1009B000D6E7022A02D19B01E2D4D0E79B07DFD41D
:1009C000CDE7022B12D00C226B681342A6D0FFF7A2
:1009D00063FC019BC01A144B9842F4D9E7E7FFF778
:1009E0005BFC019BC01A104B9842E0D80C226B684C
:1009F0001340082BF3D191E722689A4322602268C2
:100A00001A4200D18FE7AAE76368084A1340F268E8
:100A1000134363608CE7C046002002400010024090
:100A20009C2A00080400002088130000FFF8FFFF44
:100A3000014B18687047C04604000020012203687B
:100A4000D96800201143D96019680A431A607047B9
:100A500070477047704770470222036810B51969E4
:100A6000040011420ED0D96811420BD0053A1A6128
:100A70009B69043202779B0700D179E0FFF7E9FF19
:100A800000232377042223681969114210D0D96802
:100A900011420DD0093A1A61073222779A69C023B0
:100AA0009B0020001A4269D0FFF7D3FF0023237771
:100AB00008222368196911420ED0D96811420BD05F
:100AC000113A1A61DB690D32227720009B075BD057
:100AD000FFF7BFFF00232377102223681969114213
:100AE00010D0D96811420DD0213A1A6119322277FB
:100AF000DA69C0239B0020001A424BD0FFF7A9FF00
:100B000000232377012223681969114207D0D9688D
:100B1000114204D0033A1A61200000F023FC802225
:100B200023681969114208D0D968114205D0023AE8
:100B3000FF3A1A61200000F072F940222368196917
:100B4000114207D0D968114204D0813A1A612000BD
:100B5000FFF781FF202223681969114207D0D96865
:100B6000114204D0413A1A61200000F057F910BD3B
:100B7000FFF76EFF2000FFF76DFF81E7FFF768FFCB
:100B80002000FFF767FF91E7FFF762FF2000FFF704
:100B900061FF9FE7FFF75CFF2000FFF75BFFAFE718
:100BA000194A10B50368904202D0184CA04208D1EF
:100BB0007024A3434C68234390420BD0134CA042B3
:100BC00008D0134CA04205D0124CA04202D0124CC7
:100BD000A04203D1114C2340CC6823438024A3437B
:100BE0004C69234303608B68C3620B688362904245
:100BF00005D0084B984202D0074B984201D10B69AF
:100C000003630123436110BD002C01400004004038
:100C1000002000400044014000480140FFFCFFFF6D
:100C200070B504000120002C14D025003D352B7830
:100C3000DBB2002B05D122003C321370200000F003
:100C4000DFFF022320682B70211DFFF7A9FF01237E
:100C500000202B7070BD000030B58468034D0A433E
:100C60001B022C4013432343836030BDFF00FFFF72
:100C7000F8B5050002233C352A7804001800012A43
:100C800019D02600012720683D362F703370836805
:100C90004F4A134083600B68402B00D16FE016D899
:100CA000102B00D187E007D8002B00D17DE0012375
:100CB000002033702870F8BD202B00D181E0302B4C
:100CC000F5D17022836893431A00372355E0702BC7
:100CD00033D01BD8502B3BD0602BE8D110244B686D
:100CE000CA68016A3B4FA1430162846912033C4018
:100CF0002243A024016A82617022A1431B010B439D
:100D00000362836893431A00672336E0802252010E
:100D100093420DD0802292019342C8D1CB684A6899
:100D20008968FFF799FF80232268DB0191680CE056
:100D30000722836893438360B9E7CB684A68896870
:100D4000FFF78AFF7721226893680B439360AEE731
:100D50004A68CB68016A046A1B01BC43F02704623D
:100D60008469BC4323430A24A1430A43836102628A
:100D70007022836893431A0057231343DBE74A68C2
:100D8000CB68016A046A1B01BC43F02704628469D2
:100D9000BC4323430A24A1430A43836102627022B5
:100DA000836893431A004723E7E7702283689343DD
:100DB0001A000723E1E77022836893431A00172380
:100DC000DBE77022836893431A002723D5E7C046E8
:100DD0008800FFFFFF0FFFFF30B5040002223C3404
:100DE000257803001000012D17D01D001B683D352C
:100DF0002A705A686E3082435A605A680868496897
:100E0000024380205A609A6882439A609A68002060
:100E10000A439A6001232B70207030BD70477047E1
:100E200070B504000D00AE2000F06FF9200A00F04C
:100E300021F9E0B200F01EF9280000F01BF900F0E3
:100E4000E9F80A20FFF72EFA70BD10B50400AE20B5
:100E500000F05BF9200A00F00DF9E0B200F00AF9A9
:100E6000AF2000F052F9012000F083F9040000F0F7
:100E7000D1F8200010BD000070B50400D02000F0B3
:100E800044F9002000F0F6F8D12000F03EF92500EA
:100E9000A61D002000F06DF928700135AE42F8D192
:100EA000012000F066F9A07100F0B4F800220F21D3
:100EB0000748A55C135C2B401B095E00DB00F318A0
:100EC0000D405B19A3540132072AF2D170BDC04610
:100ED0000826000870B505000C00D02000F015F9B8
:100EE000280000F0C7F8200000F0C4F800F092F8E5
:100EF00070BD10B50400D02000F007F9200000F00C
:100F0000B9F8D12000F001F9012000F032F9040015
:100F100000F080F8200010BD10B51C210E20FFF756
:100F2000D9FF00210F20FFF7D5FF0220FFF7E1FFD7
:100F3000BF2101400220FFF7CDFF10BD70B50A218F
:100F40000500FFF7EBF80A2104012800FFF76CF910
:100F500061187F2400202140FFF7BCFF70BD70B5F1
:100F60000A210500FFF7DAF80A2104012800FFF73B
:100F70005BF961187F2401202140FFF7ABFF70BDB2
:100F800070B50A210500FFF7C9F80A2104012800FD
:100F9000FFF74AF96118BF2402202140FFF79AFFAA
:100FA00070BD072110B501400320FFF793FF10BD6E
:100FB00070B50A210500FFF7B1F80A2104012800E5
:100FC000FFF732F961183F2404202140FFF782FF28
:100FD00070BD70B50A210500FFF7A0F80A210401D1
:100FE0002800FFF721F961181F2405202140FFF791
:100FF00071FF70BD70B50A210500FFF78FF80A2157
:1010000004012800FFF710F96118C9B20620FFF7A4
:1010100061FF70BD70B580269024B600E405002203
:1010200031002000FFF752FAC046C046C046C04615
:10103000C0468025ED00002229002000FFF746FA77
:10104000C046C046C046C046C0460122310020000E
:10105000FFF73CFAC046C046C046C046C046012223
:1010600029002000FFF732FAC046C046C046C046FD
:10107000C04670BDF8B59026070008248025F60507
:101080002A003A4000D0012280213000C900FFF739
:101090001DFAC046C046C046C046C04680219020CA
:1010A00001228900C005FFF711FAC046C046C046BC
:1010B000C046C0468021902000228900C005013C26
:1010C000FFF704FA6D08002CDAD18021902001226C
:1010D000C900C005FFF7FAF9C046C046C046C04681
:1010E000C0468021902001228900C005FFF7EEF95B
:1010F000C046C046C046C046C0468021902022005F
:101100008900C005FFF7E2F9F8BDF8B58026902404
:10111000F600E4050700012231002000FFF7D6F9B0
:10112000C046C046C046C046C0468025AD0001222C
:1011300029002000FFF7CAF9C046C046C046C04695
:10114000C046002231002000FFF7C0F9C046C0466B
:10115000C046C046C046002229002000FFF7B6F96D
:10116000C046C046C046C046C0463800FFF782FFB2
:10117000F8BDF0B589B00190802190200122C9000E
:10118000C0059025FFF7A2F908260024ED0580216F
:10119000012289002800FFF799F96400C046C04683
:1011A000C046C046C04680270023FF0003A9280090
:1011B000039704930593FFF7D3F839002800FFF74E
:1011C0007FF9002801D001231C438021012228003F
:1011D000C900FFF77BF911230397002703A9280013
:1011E000049305970697FFF7BBF880213A00890022
:1011F0002800FFF76BF9C046C046C046C046C0464F
:10120000013EF6B2BE42C2D1019B1A00BB4200D0E1
:10121000012280219020C900C005FFF757F9C04680
:10122000C046C046C046C0468021902001228900A9
:10123000C005FFF74BF9C046C046C046C046C04691
:101240008021902000228900C005FFF73FF9C046A9
:10125000C046C046C046C046802190200122C90039
:10126000C005FFF733F9E0B209B0F0BD0323F7B5CD
:10127000344E01907078337004334343324A203344
:101280001188994256D90025B71C38001580FFF700
:10129000F3FD75723500340049350934F37832793D
:1012A0002A49280000F088FD2900200000F0A4FD54
:1012B0000C217379019A013B594354235343C918B4
:1012C000234B2000C91800F097FDB279214928006E
:1012D00000F072FD2900200000F08EFD0A21F37954
:1012E000019A013B594378235343C9181A4B2000F4
:1012F000C91800F081FD327A1849280000F05CFD21
:101300002900200000F078FD1120FFF7F2FD1449BC
:101310000200280000F050FD2900200000F06CFDC4
:101320002000FEF787FF707000F0B2FB2100202044
:1013300000F032FC044B1888421C1A8000F0B6FB07
:10134000F7BDC0468800002000000020B42A000835
:101350002C270008BD2A00083C260008C22A0008E5
:10136000CA2A00080C4B1A78002A03D01A78013ACE
:10137000D2B21A70190059310A78002A03D00A78BB
:10138000013AD2B20A705A331A78002A03D01A7876
:10139000013AD2B21A7070478800002010B50124BB
:1013A00090B02822002106A800F0FDFC10220021A8
:1013B000684600F0F8FC04A804940594FFF78CF844
:1013C0000021072368460093019402910391FFF7DF
:1013D00097FA10B010BD0000F0B58FB0FEF744FFD3
:1013E000FFF7DCFF1422002109A800F0DCFC8020BC
:1013F000D54BC0035969C2260143596180215A69FE
:101400008902024090200592059A5A69F6000A4323
:101410005A615B6901220B4006933100C005069BAF
:10142000FFF754F8902000250824012309A9C005DE
:1014300009940B930A95FEF793FF9020112309A9B5
:10144000C0050A9309960B950C95FEF789FF90202D
:10145000E02309A9C00509930A950B95FEF780FFC3
:101460001022290009A800F09EFC2200290007A8EC
:1014700000F099FCB54CB64B20002360B54BA5603D
:10148000636063232561E360A561FFF7C9FB8023E7
:1014900009A95B0120000993FFF7EAFB07A92000D7
:1014A00007950895FFF798FC2000FFF7C7FA64201E
:1014B000FEF7F8FE00F073FAFFF72EFDFF20FFF7AE
:1014C000C4FC0723A44C184023005B33187002901F
:1014D00000F05EFAFE20FFF7B8FC0323184023005B
:1014E000020003905C331A702378002B55D1002D35
:1014F00000D095E123005C331B78002B22D126001D
:10150000A71C3233493638002370FFF7B5FC00F0D2
:10151000BFFA22799149300000F04EFC31002800DA
:1015200000F03AFB3A210E2000F0F6FAE2788C49FE
:10153000300000F041FC1420310000F02DFB2800A9
:1015400000F0B4FA23005C331B78012B02D1002099
:10155000FFF78CFE23005C331B78022B02D10120A5
:10156000FFF784FE23005C331B78032B13D1A61CEA
:101570003000260011332370FFF77EFCA178493636
:10158000E378227930000091764900F015FC3100B3
:10159000002000F06FFA00F039FA23005D3318786C
:1015A0000528A1D8FEF7B0FD11233A6D95A95B334C
:1015B00052E17619033E32782600493668493000F8
:1015C00000F0FAFB3100142050E1230059331A785F
:1015D000002A89D1902005320821C0051A70FEF733
:1015E0006FFF002880D1230001225D337BE72300B9
:1015F00059331E78F6B2002E00D075E790200821EE
:10160000C005FEF75DFF23005D33002800D085E0B4
:1016100002221A702300FD325A3364E723005A3342
:101620001B78CC2B17D82300042200265D331A70B8
:101630004D4B053A26701A80012D71D123005C3381
:101640001F78039B9F4279D03900FE20FFF7E8FB0B
:101650000397002548E7260059363378002B00D041
:1016600042E7902005270821C0053770FEF728FFC4
:10167000002800D138E7230003225D331A70377049
:1016800032E7230059331E78F6B2002E00D02BE744
:1016900090200821C005FEF713FF002800D123E7A2
:1016A00023005D331E70002D00D11DE701222E4B5B
:1016B000524226701A80012D58D123005C331B78CA
:1016C0000133DBB2032B00D9330022005C321370EC
:1016D0000AE7260059363378002B00D004E7902023
:1016E00005270821C0053770FEF7EAFE002800D064
:1016F000FAE623003A1C5D33C0E7230059331E7815
:10170000F6B2002E00D0EFE690200821C005FEF7CB
:10171000D7FE002800D1E7E623005D331E70E3E624
:10172000022D0BD123005B331F78029B9F4205D013
:101730003900FF20FFF774FB02978AE70135EDB20D
:10174000092D00D8D0E684E70010024024030020D1
:10175000000400401F03000088000020CF2A00087A
:10176000C52A0008D32A000800000020022D0ED14F
:1017700023005B331F780137FFB2072F00D93700F2
:10178000380000F005F923005B331F70ACE6032D31
:1017900003D13000FFF7D2FBA6E6042D08D1E07894
:1017A0000130C0B23B2800D93000FFF7D8FB9BE6E0
:1017B000052D08D120790130C0B2172800D930009A
:1017C000FFF7DEFB90E6062D08D160790130C0B24C
:1017D000072800D90120FFF7E4FB85E6072D08D193
:1017E000A0790130C0B21F2800D90120FFF7E0FB2B
:1017F0007AE6082D08D1E0790130C0B20C2800D972
:101800000120FFF7E6FB6FE6092D00D06CE6207A99
:101810000130C0B2632800D90020FFF7EBFB63E67C
:101820003223032D00D11423A61C30002370FFF7B0
:1018300023FB00F02DF905236F1E7B430E4900208A
:10184000C918FFB200F0B6F9012F00D9B1E62300A4
:10185000012D00D0ABE65C3326001A7849360749E3
:101860000132300000F0A8FA31001B2000F094F99A
:10187000002000F01BF98EE60F260008E22A00087F
:1018800007231F22194002408343490189181A0087
:101890000123934010B5034CC908625C13436354A1
:1018A00010BDC046E6000020F7B590200022402180
:1018B000C005FEF70BFE164B80261C002833203493
:1018C00001930827350022782A4000D00122902079
:1018D0003100C005FEF7FAFD902001222021C0054D
:1018E000FEF7F4FD902000222021C005013FFEF705
:1018F000EDFD6D08002FE6D1019B01349C42E0D143
:10190000902001224021C005FEF7E0FDF7BDC04652
:10191000E6000020F8B50C4E0025370001242037E2
:1019200002237119FA18901E04700878013A0233E4
:10193000107001310A2BF5D101340435FFF7B4FFE3
:10194000E4B2202DECD1F8BDE60000200A4B10B522
:101950005A1CD0779A1CD177DA1CD0771A1DD17710
:101960005A1DD0779A1DD177DA1D0833D077D977F1
:10197000FFF79AFF10BDC046E600002000231900C3
:10198000024A99540133202BFBD17047E600002016
:101990000F2110B501400A20FFF7D8FF10BD70B528
:1019A000902686B0F6051422002101A800F0FBF96C
:1019B00000223000E021FEF789FD0024E02301250C
:1019C00001A930000193029503940494FEF7C8FC2A
:1019D00021000C20FFF7BAFF21000920FFF7B6FF16
:1019E00021000A20FFF7B2FF07210B20FFF7AEFF0F
:1019F00021000F20FFF7AAFFFFF7C0FFFFF78AFFC4
:101A000029000C20FFF7A2FF06B070BD10B5FFF74C
:101A100081FFFFF7B3FF10BD0B00303BDBB2F7B522
:101A200006000A2B0AD90B23202907D001332B29C2
:101A300004D02D390B00591E8B410D330025012791
:101A40000B49DB005B1801930224EBB20093019B6E
:101A50005B5D23413B4205D0B01C001BC0B2009926
:101A6000FFF70EFF013CF2D20135072DECD1F7BD97
:101A7000D427000870B504000D002978002900D192
:101A800070BD200004340135FFF7C6FFE4B2F4E76F
:101A900000238022180010B5034C9200191901335D
:101AA00008709342FAD110BD0E010020E023FF33ED
:101AB000F7B5984200D9002000250127094E861964
:101AC0000024EBB20193735DE1B223413B4202D0AB
:101AD0000198FFF7D5FE0134082CF4D10135202DF3
:101AE000EED1F7BD0E01002030B50D0007290BD84F
:101AF000074B984208D80121A940064C49B2235609
:101B0000002A02D00B43235430BD8B43FBE7C04671
:101B1000FF0100000E0100200B00303BDBB2F7B5E7
:101B200007000A2B05D90B00413B192B1CD8323971
:101B3000CBB2002501261749DB005B180193042472
:101B4000EBB20093019B5B5D2341334206D0381D0D
:101B5000001B80B232000099FFF7C6FF013CF1D2B2
:101B60000135082DEBD1F7BD0B004033DBB21F2B45
:101B700001D86A31DCE70B232029DAD001332B2985
:101B8000D7D001332D29D4D001332E29D1D01B3306
:101B9000CFE7C0464C28000870B504000D00297836
:101BA000002900D170BD200007340135FFF7B4FFD4
:101BB000A4B2F4E770B504000D002978002900D123
:101BC00070BDA0B206340135FFF7A6FFE4B2F4E71A
:101BD00001200A4B82B099690143996180219A6979
:101BE000490502400092009ADA690A43DA61DB692A
:101BF0000B400193019B02B07047C04600100240A9
:101C000007B50B4B02689A4210D10220094AD169EC
:101C10000143D161D3690022034001930E301100CA
:101C2000019BFEF74FFB1020FEF776FB07BDC04679
:101C300000040040001002407047FEE77047704704
:101C400010B5FEF721FB10BD10B50248FEF704FFEA
:101C500010BDC046240300200A4B10B519680200CD
:101C6000002901D1084919606946186882188A421A
:101C700006D900F065F80C2303600120404210BD36
:101C80001A60FCE710030020680300200121114BBB
:101C900011481A680A431A605A6802405A601A6862
:101CA0000E4802401A601A680D4802401A605A68CD
:101CB0000C4802400F205A60DA6A8243DA621A6BDB
:101CC000094802401A635A6B8A435A6300229A6099
:101CD0007047C046001002400CB8FF08FFFFF6FE38
:101CE000FFFFFBFFFFFFC0FFECFEFFFF0D48854637
:101CF0000D480E490E4A002302E0D458C450043364
:101D0000C4188C42F9D30B4A0B4C002301E013603A
:101D10000432A242FBD3FFF7B9FF00F017F8FFF738
:101D20005BFBFEE700100020000000206C0000209C
:101D3000242B00086C00002068030020FEE7000050
:101D4000014B18687047C0460800002070B5002697
:101D50000C4D0D4C641BA410A64209D1002600F0C6
:101D600037FC0A4D0A4C641BA410A64205D170BD75
:101D7000B300EB5898470136EEE7B300EB589847AD
:101D80000136F2E71C2B00081C2B00081C2B000856
:101D9000202B0008002310B59A4200D110BDCC5C66
:101DA000C4540133F8E703001218934200D170477E
:101DB00019700133F9E700000EB400B50B499CB06F
:101DC0001DAB02900690079104910948094904CB84
:101DD0000591006802A9019300F07EF80023029AA1
:101DE00013701CB008BC03B01847C046FFFFFF7F4C
:101DF000080000200802FFFF020010B51378541CF1
:101E0000002B05D1CC5CD4540133002CFAD110BD89
:101E10002200F3E7F0B58E6885B007000C0003924E
:101E200001939E423CD890238A89DB001A4234D029
:101E30000325096923685B1A0293636902985D436D
:101E4000EB0F5D19019B6D1001331B18AB4200D9DC
:101E50001D00530532D52900380000F019FB061E7D
:101E600009D10C233B6040230120A2894042134347
:101E7000A38105B0F0BD029A2169FFF78BFFA3890A
:101E8000144A1A4080231343A381029B2661F6184B
:101E900026606561019EED1AA560019B9E4200D9F6
:101EA000019E32000399206800F095FAA368002093
:101EB0009B1BA36023689E192660DAE72A0038007E
:101EC00000F044FB061EE0D12169380000F096FACC
:101ED000C7E7C0467FFBFFFFF0B5A1B003901D0030
:101EE0008B890F0016001B0611D50B69002B0ED134
:101EF000402100F0CDFA38603861002805D10C236C
:101F0000039A0138136021B0F0BD40237B610023A8
:101F100008AC6361203363761033A37607953500F0
:101F20002B78002B01D0252B46D1AB1B05930CD071
:101F3000320039000398FFF76DFF431C00D1AEE07B
:101F40006269059B9446634463612B78002B00D142
:101F5000A5E0012200235242626004A954325218C3
:101F60006E1C2360E360A3601370A36531780522C3
:101F7000534800F025FA751C00281FD12268D306AB
:101F800004D5532304A95B1820211970130704D525
:101F9000532304A95B182B21197033782A2B16D0F0
:101FA000350000210A20E3682A786E1C303A092A9D
:101FB0004ED9002918D010E00135B1E7404B226816
:101FC000C01A01238340134323602E00CEE7079BF2
:101FD000191D1B680791002B01DB0B9304E05B428A
:101FE000E3600223134323602B782E2B0AD16B78F6
:101FF0002A2B35D1079B02351A1D1B680792002B2F
:102000002BDB09932F4E29780322300000F0D8F9FA
:10201000002806D04023801B8340226801351343EB
:1020200023602978062228486E1C217600F0C8F922
:1020300000283CD0254B002B25D10722079B0733D6
:102040009343083307936369049A9B18636166E7B7
:10205000434301219B183500A6E701235B42D0E7EB
:1020600000230A201A000135636029786E1C30397C
:10207000092903D9002BC5D00992C3E742430123A4
:1020800052183500F1E707AB00933A00104B2100DE
:10209000039800E000BF0490049B0133D3D1BB89B7
:1020A0000D985B0600D42EE7012040422BE707ABDA
:1020B00000933A00064B2100039800F079F8EAE714
:1020C000E62A0008EC2A0008F02A000800000000B8
:1020D000151E0008F7B5150001938A680B6900907A
:1020E0000C00934200DA130022002B604332127876
:1020F000002A01D001332B6023689B0602D52B6890
:1021000002332B60062723681F4027D02300433368
:102110001B785A1E93412268920630D422000199FE
:1021200043320098089EB047431C25D00623206800
:102130002A68E16803400025042B03D18D1AEB4384
:10214000DB171D40A3682269934201DD9B1AED183D
:102150000027BD4220D1002010E00137E3682A6843
:102160009B1ABB42D2DD220001231932019900984B
:10217000089EB047431CF0D101204042FEBD3020F4
:10218000E1184331087021005A1C45310978A21822
:10219000433202331170C1E7220001231A32019940
:1021A0000098089EB047431CE6D00137D1E70000F5
:1021B000F0B589B004920A0043320593039002926D
:1021C0000A7E0C000E9B6E2A00D186E01FD8632A7F
:1021D00033D008D8002A00D18CE0582A4DD02500F1
:1021E00042352A7030E0642A01D0692AF7D1196893
:1021F00025680A1D280629D508681A60002803DA10
:102200002D23029A404213706B4E0A274FE0732A27
:1022100074D008D86F2A1FD0702AE0D12022096814
:102220000A43226003E0752A16D0782AD7D122000B
:10223000782145321170614E22E025001A6842353E
:10224000111D196013682B70012365E008681A607E
:102250006906D3D500B2D1E719682568081D186052
:1022600008682E0605D5544E08276F2A1BD00A276A
:1022700019E06D06F7D580B2F5E745314E4E0A708C
:1022800018682268011D00681960150621D5D3075A
:1022900002D520231A4322601027002803D12023CF
:1022A00022689A4322602300002243331A70636835
:1022B000A360002B58DB0422216891432160002891
:1022C00054D1029D002B5AD02500337842352B7013
:1022D00055E05506DBD580B2D9E71A680D68101DA8
:1022E0004969186013682E0601D5196002E06D0671
:1022F000FBD519800023029D23614FE01A68111D50
:102300001960156800216268280000F059F800285B
:1023100001D0401B6060636823610023029A137040
:102320003CE023692A0004990398059DA847431CB3
:102330003ED023689B0715D4079BE068984239DAA2
:10234000180037E022000123193204990398059EF2
:10235000B047431C2CD00135E368079A9B1AAB4267
:10236000F0DCE9E70025F7E70028ADD0029D390051
:10237000FDF75AFF735C013D2B700028F7D1082F41
:1023800009D12368DB0706D563682269934202DC22
:102390003023013D2B70029B5B1B2361059B07AA29
:1023A00000932100049B0398FFF794FE431CB8D1CF
:1023B0000120404209B0F0BDF72A0008082B0008B0
:1023C000C9B28218904201D10020704703788B4235
:1023D000FBD00130F6E710B5884202D98B1898423D
:1023E00003D3002307E08B5C8354013AFBD210BD7A
:1023F000CC5CC45401339A42FAD1F8E770B50500B9
:10240000002910D00C1F2368002B00DAE4182800E4
:1024100000F0D4F81D4A1368002B05D163601460E6
:10242000280000F0CCF870BDA34209D921686018DB
:102430008342F3D118685B6841182160EEE713000E
:102440005A68002A01D0A242F9D919685818A04246
:102450000BD120680918581819608242E0D1106821
:102460005268411819605A60DAE7A04202D90C2379
:102470002B60D5E721686018824203D1106852684A
:102480004118216062605C60CAE7C0461803002002
:10249000032370B5CD1C9D43083506000C2D1ED2BC
:1024A0000C25A9421DD8300000F088F8254A146890
:1024B0002100002919D1244C2368002B03D13000BE
:1024C00000F06AF820602900300000F065F8431C35
:1024D0002BD10C233000336000F071F803E0002DA5
:1024E000DFDA0C233360002070BD0B685B1B19D44E
:1024F0000B2B03D90B60CC18256003E04B688C4292
:102500000DD11360300000F05AF8200007220B3084
:10251000231D9043C31AE7D05A42E250E4E76360B8
:102520000C00EFE70C004968C3E70323C41C9C437D
:10253000A042E1D0211A300000F02EF8431CDBD17C
:10254000C7E7C046180300201C030020F8B50700A9
:102550000D001600002905D11100FFF799FF0400B6
:102560002000F8BD002A03D1FFF748FF3400F7E749
:1025700000F026F82C00B042F2D231003800FFF70C
:1025800087FF041EECD029003200FFF703FC29006E
:102590003800FFF733FFE3E7002370B5064C050072
:1025A00008002360FFF758FB431C03D12368002B6E
:1025B00000D02B6070BDC046640300207047704798
:1025C0000B1F1B68181F002B01DA0B58C01870472F
:1025D000F8B5C046F8BC08BC9E467047F8B5C04682
:0825E000F8BC08BC9E467047E0
:1025E80002030405060708090A0B0C0D0E0F10104C
:1025F8000102030405060708090A0B0C0D0E0F104B
:10260800707030003010F04D4F4445004252494739
:102618000053454300004D494E0000484F55000007
:10262800444159000044415400004D4F4E000059A8
:10263800454100004A414E55415259000000464567
:1026480042525541525900004D4152434800000042
:102658000000415052494C00000000004D41590013
:102668000000000000004A554E4500000000000030
:102678004A554C5900000000000041554755535435
:102688000000000053455054454D424552004F4309
:10269800544F4245520000004E4F56454D42455258
:1026A8000000444543454D4245520000DFCDC2C0BD
:1026B800D0DC00000000D4C5C2D0C0CBDC000000D4
:1026C800CCC0D0D2000000000000C0CFD0C5CBDC09
:1026D80000000000CCC0C900000000000000C8DEF7
:1026E800CDDC000000000000C8DECBDC00000000EC
:1026F8000000C0C2C3D3D1D200000000D1C5CDD2E2
:10270800DFC1D0DC0000CECAD2DFC1D0DC000000BF
:10271800CDCEDFC1D0DC00000000C4C5CAC0C1D026
:10272800DC0000004D4F4E444159000000000000FD
:102738005455455344415900000000005745444E44
:102748004553444159000000544855525344415997
:1027580000000000465249444159000000000000B2
:1027680053415455524441590000000053554E44BA
:102778004159000000000000CFCECDC5C4C5CBDC58
:10278800CDC8CA00C2D2CED0CDC8CA000000000051
:10279800D1D0C5C4C000000000000000D7C5D2C217
:1027A800C5D0C30000000000CFDFD2CDC8D6C0001E
:1027B80000000000D1D3C1C1CED2C000000000008B
:1027C800C2CED1CAD0C5D1C5CDDCC5000705050527
:1027D80005050700020602020202070007010107B9
:1027E80004040700070101070101070005050507A3
:1027F8000101010007040407010107000704040799
:10280800050507000701010101010100070505078A
:10281800050507000705050701010700000202007A
:102828000202000000000000000000000000020793
:10283800020000000000000700000000070707076B
:10284800070707000E1111111111110E040C1404C1
:102858000404041F0E1101010E10101F0E110106B1
:102868000101110E090909111F0101011F10101E94
:102878000101110E0E11101E1111110E1F0101027E
:10288800040404040E11110E1111110E0E11111170
:102898000F01110E000C0C00000C0C0000000000D1
:1028A800000000000004041F040400000000001FD2
:1028B800000000000000000000000C0C0E111111B7
:1028C8001F1111111E11111E1111111E0E111010C0
:1028D8001010110E1E1111111111111E1F10101EB2
:1028E8001010101F1F10101E101010100E111010B5
:1028F8001311110E1111111F111111110E040404DD
:102908000404040E070101010111110E111214181B
:1029180018141211101010101010101F11111B157F
:102928001111111111111915131111110E11111184
:102938001111110E1E1111111E1010100E1111116E
:102948001115120D1E1111111E1412110E11100C59
:102958000201110E1F0404040404040411111111CE
:102968001111110E11111111110A0A04111111116D
:1029780015151B1111110A04040A111111110A0A63
:10298800040404041F0102040408101F1F1F1F1F52
:102998001F1F1F1F0E1111111F1111111F10101EC3
:1029A8001111111E1E11111E1111111E1F111010CF
:1029B800101010100E0A0A0A0A0A1F111F10101E02
:1029C8001010101F1515150E151515150E110106E9
:1029D8000101110E111111131519111104111113FF
:1029E8001519111111121418181412110F090909C7
:1029F8000909091111111B15111111111111111FBB
:102A0800111111110E1111111111110E1F111111A6
:102A1800111111111E1111111E1010100E1110108C
:102A28001010110E1F0404040404040411111111E0
:102A38000F01110E0E151515150E040411110A04B7
:102A4800040A11111212121212121F01111111117E
:102A58000F010101151515151515151F1515151556
:102A680015151F01180808080E09090E1111111172
:102A780019151519101010101E11111E0E11010F25
:102A88000101110E1215151D151515120F11110F33
:102A98000305091100000000000000000102030402
:102AA80006070809000000000102030425753A25FD
:102AB8003032752000202575200020323025303234
:102AC800750020252B640025327500253032753AB3
:102AD800253032753A253032750025317500232DA1
:102AE800302B2000686C4C0065666745464700300F
:102AF800313233343536373839414243444546005C
:102B0800303132333435363738396162636465665B
:042B180000000000B9
:042B1C00E9000008C4
:042B2000C1000008E8
:102B2400FFFF000000127A000C00002000000000EB
:102B34000000000000000000000000000000000091
:102B44000000000000000000000000000000000081
:102B54000000000000000000000000000000000071
:102B64000000000000000000000000000000000061
:102B74000000000000000000000000000000000051
:0C2B840000000000000000000000000045
:0400000508001CEDE6
:00000001FF
